{
  "_format": "hh-sol-artifact-1",
  "contractName": "NFTSkulls2022",
  "sourceName": "contracts/NFTSkulls2022.sol",
  "abi": [
    {
      "inputs": [],
      "stateMutability": "nonpayable",
      "type": "constructor"
    },
    {
      "anonymous": false,
      "inputs": [
        {
          "indexed": true,
          "internalType": "address",
          "name": "owner",
          "type": "address"
        },
        {
          "indexed": true,
          "internalType": "address",
          "name": "approved",
          "type": "address"
        },
        {
          "indexed": true,
          "internalType": "uint256",
          "name": "tokenId",
          "type": "uint256"
        }
      ],
      "name": "Approval",
      "type": "event"
    },
    {
      "anonymous": false,
      "inputs": [
        {
          "indexed": true,
          "internalType": "address",
          "name": "owner",
          "type": "address"
        },
        {
          "indexed": true,
          "internalType": "address",
          "name": "operator",
          "type": "address"
        },
        {
          "indexed": false,
          "internalType": "bool",
          "name": "approved",
          "type": "bool"
        }
      ],
      "name": "ApprovalForAll",
      "type": "event"
    },
    {
      "anonymous": false,
      "inputs": [
        {
          "indexed": true,
          "internalType": "address",
          "name": "previousOwner",
          "type": "address"
        },
        {
          "indexed": true,
          "internalType": "address",
          "name": "newOwner",
          "type": "address"
        }
      ],
      "name": "OwnershipTransferred",
      "type": "event"
    },
    {
      "anonymous": false,
      "inputs": [
        {
          "indexed": true,
          "internalType": "address",
          "name": "from",
          "type": "address"
        },
        {
          "indexed": true,
          "internalType": "address",
          "name": "to",
          "type": "address"
        },
        {
          "indexed": true,
          "internalType": "uint256",
          "name": "tokenId",
          "type": "uint256"
        }
      ],
      "name": "Transfer",
      "type": "event"
    },
    {
      "inputs": [],
      "name": "MAX_TOKEN_COUNT",
      "outputs": [
        {
          "internalType": "uint256",
          "name": "",
          "type": "uint256"
        }
      ],
      "stateMutability": "view",
      "type": "function"
    },
    {
      "inputs": [
        {
          "internalType": "address",
          "name": "to",
          "type": "address"
        },
        {
          "internalType": "uint256",
          "name": "tokenId",
          "type": "uint256"
        }
      ],
      "name": "approve",
      "outputs": [],
      "stateMutability": "nonpayable",
      "type": "function"
    },
    {
      "inputs": [
        {
          "internalType": "address",
          "name": "owner",
          "type": "address"
        }
      ],
      "name": "balanceOf",
      "outputs": [
        {
          "internalType": "uint256",
          "name": "",
          "type": "uint256"
        }
      ],
      "stateMutability": "view",
      "type": "function"
    },
    {
      "inputs": [],
      "name": "baseUri",
      "outputs": [
        {
          "internalType": "string",
          "name": "",
          "type": "string"
        }
      ],
      "stateMutability": "view",
      "type": "function"
    },
    {
      "inputs": [
        {
          "internalType": "uint256",
          "name": "tokenId",
          "type": "uint256"
        }
      ],
      "name": "getApproved",
      "outputs": [
        {
          "internalType": "address",
          "name": "",
          "type": "address"
        }
      ],
      "stateMutability": "view",
      "type": "function"
    },
    {
      "inputs": [
        {
          "internalType": "address",
          "name": "owner",
          "type": "address"
        },
        {
          "internalType": "address",
          "name": "operator",
          "type": "address"
        }
      ],
      "name": "isApprovedForAll",
      "outputs": [
        {
          "internalType": "bool",
          "name": "",
          "type": "bool"
        }
      ],
      "stateMutability": "view",
      "type": "function"
    },
    {
      "inputs": [],
      "name": "isSaleActive",
      "outputs": [
        {
          "internalType": "bool",
          "name": "",
          "type": "bool"
        }
      ],
      "stateMutability": "view",
      "type": "function"
    },
    {
      "inputs": [],
      "name": "maxTokenCountPerTx",
      "outputs": [
        {
          "internalType": "uint256",
          "name": "",
          "type": "uint256"
        }
      ],
      "stateMutability": "view",
      "type": "function"
    },
    {
      "inputs": [],
      "name": "mintPrice",
      "outputs": [
        {
          "internalType": "uint256",
          "name": "",
          "type": "uint256"
        }
      ],
      "stateMutability": "view",
      "type": "function"
    },
    {
      "inputs": [],
      "name": "name",
      "outputs": [
        {
          "internalType": "string",
          "name": "",
          "type": "string"
        }
      ],
      "stateMutability": "view",
      "type": "function"
    },
    {
      "inputs": [],
      "name": "owner",
      "outputs": [
        {
          "internalType": "address",
          "name": "",
          "type": "address"
        }
      ],
      "stateMutability": "view",
      "type": "function"
    },
    {
      "inputs": [
        {
          "internalType": "uint256",
          "name": "tokenId",
          "type": "uint256"
        }
      ],
      "name": "ownerOf",
      "outputs": [
        {
          "internalType": "address",
          "name": "",
          "type": "address"
        }
      ],
      "stateMutability": "view",
      "type": "function"
    },
    {
      "inputs": [],
      "name": "pauseSale",
      "outputs": [],
      "stateMutability": "nonpayable",
      "type": "function"
    },
    {
      "inputs": [],
      "name": "renounceOwnership",
      "outputs": [],
      "stateMutability": "nonpayable",
      "type": "function"
    },
    {
      "inputs": [
        {
          "internalType": "address",
          "name": "to",
          "type": "address"
        },
        {
          "internalType": "uint256",
          "name": "amount",
          "type": "uint256"
        }
      ],
      "name": "reserveTokens",
      "outputs": [],
      "stateMutability": "nonpayable",
      "type": "function"
    },
    {
      "inputs": [
        {
          "internalType": "address",
          "name": "to",
          "type": "address"
        },
        {
          "internalType": "uint256",
          "name": "amount",
          "type": "uint256"
        }
      ],
      "name": "safeMint",
      "outputs": [],
      "stateMutability": "payable",
      "type": "function"
    },
    {
      "inputs": [
        {
          "internalType": "address",
          "name": "from",
          "type": "address"
        },
        {
          "internalType": "address",
          "name": "to",
          "type": "address"
        },
        {
          "internalType": "uint256",
          "name": "tokenId",
          "type": "uint256"
        }
      ],
      "name": "safeTransferFrom",
      "outputs": [],
      "stateMutability": "nonpayable",
      "type": "function"
    },
    {
      "inputs": [
        {
          "internalType": "address",
          "name": "from",
          "type": "address"
        },
        {
          "internalType": "address",
          "name": "to",
          "type": "address"
        },
        {
          "internalType": "uint256",
          "name": "tokenId",
          "type": "uint256"
        },
        {
          "internalType": "bytes",
          "name": "_data",
          "type": "bytes"
        }
      ],
      "name": "safeTransferFrom",
      "outputs": [],
      "stateMutability": "nonpayable",
      "type": "function"
    },
    {
      "inputs": [
        {
          "internalType": "address",
          "name": "operator",
          "type": "address"
        },
        {
          "internalType": "bool",
          "name": "approved",
          "type": "bool"
        }
      ],
      "name": "setApprovalForAll",
      "outputs": [],
      "stateMutability": "nonpayable",
      "type": "function"
    },
    {
      "inputs": [
        {
          "internalType": "string",
          "name": "newBaseUri",
          "type": "string"
        }
      ],
      "name": "setBaseUri",
      "outputs": [],
      "stateMutability": "nonpayable",
      "type": "function"
    },
    {
      "inputs": [
        {
          "internalType": "uint256",
          "name": "newMaxTokenCountPerTx",
          "type": "uint256"
        }
      ],
      "name": "setMaxTokenCountPerTx",
      "outputs": [],
      "stateMutability": "nonpayable",
      "type": "function"
    },
    {
      "inputs": [
        {
          "internalType": "uint256",
          "name": "newPrice",
          "type": "uint256"
        }
      ],
      "name": "setMintPrice",
      "outputs": [],
      "stateMutability": "nonpayable",
      "type": "function"
    },
    {
      "inputs": [
        {
          "internalType": "bytes4",
          "name": "interfaceId",
          "type": "bytes4"
        }
      ],
      "name": "supportsInterface",
      "outputs": [
        {
          "internalType": "bool",
          "name": "",
          "type": "bool"
        }
      ],
      "stateMutability": "view",
      "type": "function"
    },
    {
      "inputs": [],
      "name": "symbol",
      "outputs": [
        {
          "internalType": "string",
          "name": "",
          "type": "string"
        }
      ],
      "stateMutability": "view",
      "type": "function"
    },
    {
      "inputs": [
        {
          "internalType": "uint256",
          "name": "index",
          "type": "uint256"
        }
      ],
      "name": "tokenByIndex",
      "outputs": [
        {
          "internalType": "uint256",
          "name": "",
          "type": "uint256"
        }
      ],
      "stateMutability": "view",
      "type": "function"
    },
    {
      "inputs": [
        {
          "internalType": "address",
          "name": "owner",
          "type": "address"
        },
        {
          "internalType": "uint256",
          "name": "index",
          "type": "uint256"
        }
      ],
      "name": "tokenOfOwnerByIndex",
      "outputs": [
        {
          "internalType": "uint256",
          "name": "",
          "type": "uint256"
        }
      ],
      "stateMutability": "view",
      "type": "function"
    },
    {
      "inputs": [
        {
          "internalType": "uint256",
          "name": "tokenId",
          "type": "uint256"
        }
      ],
      "name": "tokenURI",
      "outputs": [
        {
          "internalType": "string",
          "name": "",
          "type": "string"
        }
      ],
      "stateMutability": "view",
      "type": "function"
    },
    {
      "inputs": [],
      "name": "totalSupply",
      "outputs": [
        {
          "internalType": "uint256",
          "name": "",
          "type": "uint256"
        }
      ],
      "stateMutability": "view",
      "type": "function"
    },
    {
      "inputs": [
        {
          "internalType": "address",
          "name": "from",
          "type": "address"
        },
        {
          "internalType": "address",
          "name": "to",
          "type": "address"
        },
        {
          "internalType": "uint256",
          "name": "tokenId",
          "type": "uint256"
        }
      ],
      "name": "transferFrom",
      "outputs": [],
      "stateMutability": "nonpayable",
      "type": "function"
    },
    {
      "inputs": [
        {
          "internalType": "address",
          "name": "newOwner",
          "type": "address"
        }
      ],
      "name": "transferOwnership",
      "outputs": [],
      "stateMutability": "nonpayable",
      "type": "function"
    },
    {
      "inputs": [],
      "name": "unpauseSale",
      "outputs": [],
      "stateMutability": "nonpayable",
      "type": "function"
    },
    {
      "inputs": [
        {
          "internalType": "address",
          "name": "to",
          "type": "address"
        },
        {
          "internalType": "uint256",
          "name": "amount",
          "type": "uint256"
        }
      ],
      "name": "withdraw",
      "outputs": [],
      "stateMutability": "nonpayable",
      "type": "function"
    }
  ],
  "bytecode": "0x6080604052604051806060016040528060368152602001620045bf60369139600b90805190602001906200003592919062000203565b506000600c60006101000a81548160ff02191690831515021790555066038d7ea4c68000600d556002600e553480156200006e57600080fd5b506040518060400160405280600d81526020017f4e4654536b756c6c7332303232000000000000000000000000000000000000008152506040518060400160405280600881526020017f4e465453323032320000000000000000000000000000000000000000000000008152508160009080519060200190620000f392919062000203565b5080600190805190602001906200010c92919062000203565b5050506200012f620001236200013560201b60201c565b6200013d60201b60201c565b62000318565b600033905090565b6000600a60009054906101000a900473ffffffffffffffffffffffffffffffffffffffff16905081600a60006101000a81548173ffffffffffffffffffffffffffffffffffffffff021916908373ffffffffffffffffffffffffffffffffffffffff1602179055508173ffffffffffffffffffffffffffffffffffffffff168173ffffffffffffffffffffffffffffffffffffffff167f8be0079c531659141344cd1fd0a4f28419497f9722a3daafe3b4186f6b6457e060405160405180910390a35050565b8280546200021190620002b3565b90600052602060002090601f01602090048101928262000235576000855562000281565b82601f106200025057805160ff191683800117855562000281565b8280016001018555821562000281579182015b828111156200028057825182559160200191906001019062000263565b5b50905062000290919062000294565b5090565b5b80821115620002af57600081600090555060010162000295565b5090565b60006002820490506001821680620002cc57607f821691505b60208210811415620002e357620002e2620002e9565b5b50919050565b7f4e487b7100000000000000000000000000000000000000000000000000000000600052602260045260246000fd5b61429780620003286000396000f3fe6080604052600436106101e35760003560e01c806378cf19e911610102578063b88d4fde11610095578063e985e9c511610064578063e985e9c5146106bf578063f2fde38b146106fc578063f3fef3a314610725578063f4a0a5281461074e576101e3565b8063b88d4fde14610617578063bb33d72914610640578063c87b56dd14610657578063d0bbb0d714610694576101e3565b80639abc8320116100d15780639abc83201461057e578063a0bcfc7f146105a9578063a1448194146105d2578063a22cb465146105ee576101e3565b806378cf19e9146104d457806384b502d4146104fd5780638da5cb5b1461052857806395d89b4114610553576101e3565b80634f6ccce71161017a5780636817c76c116101495780636817c76c1461042c57806370a0823114610457578063715018a614610494578063763dabee146104ab576101e3565b80634f6ccce71461037057806355367ba9146103ad578063564566a8146103c45780636352211e146103ef576101e3565b806318160ddd116101b657806318160ddd146102b657806323b872dd146102e15780632f745c591461030a57806342842e0e14610347576101e3565b806301ffc9a7146101e857806306fdde0314610225578063081812fc14610250578063095ea7b31461028d575b600080fd5b3480156101f457600080fd5b5061020f600480360381019061020a9190612f5e565b610777565b60405161021c9190613a6a565b60405180910390f35b34801561023157600080fd5b5061023a610789565b6040516102479190613a85565b60405180910390f35b34801561025c57600080fd5b5061027760048036038101906102729190612ff1565b61081b565b6040516102849190613a03565b60405180910390f35b34801561029957600080fd5b506102b460048036038101906102af9190612f22565b6108a0565b005b3480156102c257600080fd5b506102cb6109b8565b6040516102d89190613dc7565b60405180910390f35b3480156102ed57600080fd5b5061030860048036038101906103039190612e1c565b6109c5565b005b34801561031657600080fd5b50610331600480360381019061032c9190612f22565b610a25565b60405161033e9190613dc7565b60405180910390f35b34801561035357600080fd5b5061036e60048036038101906103699190612e1c565b610aca565b005b34801561037c57600080fd5b5061039760048036038101906103929190612ff1565b610aea565b6040516103a49190613dc7565b60405180910390f35b3480156103b957600080fd5b506103c2610b81565b005b3480156103d057600080fd5b506103d9610c1a565b6040516103e69190613a6a565b60405180910390f35b3480156103fb57600080fd5b5061041660048036038101906104119190612ff1565b610c2d565b6040516104239190613a03565b60405180910390f35b34801561043857600080fd5b50610441610cdf565b60405161044e9190613dc7565b60405180910390f35b34801561046357600080fd5b5061047e60048036038101906104799190612db7565b610ce5565b60405161048b9190613dc7565b60405180910390f35b3480156104a057600080fd5b506104a9610d9d565b005b3480156104b757600080fd5b506104d260048036038101906104cd9190612ff1565b610e25565b005b3480156104e057600080fd5b506104fb60048036038101906104f69190612f22565b610eab565b005b34801561050957600080fd5b50610512610f5e565b60405161051f9190613dc7565b60405180910390f35b34801561053457600080fd5b5061053d610f64565b60405161054a9190613a03565b60405180910390f35b34801561055f57600080fd5b50610568610f8e565b6040516105759190613a85565b60405180910390f35b34801561058a57600080fd5b50610593611020565b6040516105a09190613a85565b60405180910390f35b3480156105b557600080fd5b506105d060048036038101906105cb9190612fb0565b6110ae565b005b6105ec60048036038101906105e79190612f22565b611144565b005b3480156105fa57600080fd5b5061061560048036038101906106109190612ee6565b6112be565b005b34801561062357600080fd5b5061063e60048036038101906106399190612e6b565b6112d4565b005b34801561064c57600080fd5b50610655611336565b005b34801561066357600080fd5b5061067e60048036038101906106799190612ff1565b6113cf565b60405161068b9190613a85565b60405180910390f35b3480156106a057600080fd5b506106a9611476565b6040516106b69190613dc7565b60405180910390f35b3480156106cb57600080fd5b506106e660048036038101906106e19190612de0565b61147b565b6040516106f39190613a6a565b60405180910390f35b34801561070857600080fd5b50610723600480360381019061071e9190612db7565b61150f565b005b34801561073157600080fd5b5061074c60048036038101906107479190612f22565b611607565b005b34801561075a57600080fd5b5061077560048036038101906107709190612ff1565b6116d4565b005b60006107828261175a565b9050919050565b6060600080546107989061408c565b80601f01602080910402602001604051908101604052809291908181526020018280546107c49061408c565b80156108115780601f106107e657610100808354040283529160200191610811565b820191906000526020600020905b8154815290600101906020018083116107f457829003601f168201915b5050505050905090565b6000610826826117d4565b610865576040517f08c379a000000000000000000000000000000000000000000000000000000000815260040161085c90613ce7565b60405180910390fd5b6004600083815260200190815260200160002060009054906101000a900473ffffffffffffffffffffffffffffffffffffffff169050919050565b60006108ab82610c2d565b90508073ffffffffffffffffffffffffffffffffffffffff168373ffffffffffffffffffffffffffffffffffffffff16141561091c576040517f08c379a000000000000000000000000000000000000000000000000000000000815260040161091390613d67565b60405180910390fd5b8073ffffffffffffffffffffffffffffffffffffffff1661093b611840565b73ffffffffffffffffffffffffffffffffffffffff16148061096a575061096981610964611840565b61147b565b5b6109a9576040517f08c379a00000000000000000000000000000000000000000000000000000000081526004016109a090613c47565b60405180910390fd5b6109b38383611848565b505050565b6000600880549050905090565b6109d66109d0611840565b82611901565b610a15576040517f08c379a0000000000000000000000000000000000000000000000000000000008152600401610a0c90613d87565b60405180910390fd5b610a208383836119df565b505050565b6000610a3083610ce5565b8210610a71576040517f08c379a0000000000000000000000000000000000000000000000000000000008152600401610a6890613ac7565b60405180910390fd5b600660008473ffffffffffffffffffffffffffffffffffffffff1673ffffffffffffffffffffffffffffffffffffffff168152602001908152602001600020600083815260200190815260200160002054905092915050565b610ae5838383604051806020016040528060008152506112d4565b505050565b6000610af46109b8565b8210610b35576040517f08c379a0000000000000000000000000000000000000000000000000000000008152600401610b2c90613da7565b60405180910390fd5b60088281548110610b6f577f4e487b7100000000000000000000000000000000000000000000000000000000600052603260045260246000fd5b90600052602060002001549050919050565b610b89611840565b73ffffffffffffffffffffffffffffffffffffffff16610ba7610f64565b73ffffffffffffffffffffffffffffffffffffffff1614610bfd576040517f08c379a0000000000000000000000000000000000000000000000000000000008152600401610bf490613d07565b60405180910390fd5b6000600c60006101000a81548160ff021916908315150217905550565b600c60009054906101000a900460ff1681565b6000806002600084815260200190815260200160002060009054906101000a900473ffffffffffffffffffffffffffffffffffffffff169050600073ffffffffffffffffffffffffffffffffffffffff168173ffffffffffffffffffffffffffffffffffffffff161415610cd6576040517f08c379a0000000000000000000000000000000000000000000000000000000008152600401610ccd90613c87565b60405180910390fd5b80915050919050565b600d5481565b60008073ffffffffffffffffffffffffffffffffffffffff168273ffffffffffffffffffffffffffffffffffffffff161415610d56576040517f08c379a0000000000000000000000000000000000000000000000000000000008152600401610d4d90613c67565b60405180910390fd5b600360008373ffffffffffffffffffffffffffffffffffffffff1673ffffffffffffffffffffffffffffffffffffffff168152602001908152602001600020549050919050565b610da5611840565b73ffffffffffffffffffffffffffffffffffffffff16610dc3610f64565b73ffffffffffffffffffffffffffffffffffffffff1614610e19576040517f08c379a0000000000000000000000000000000000000000000000000000000008152600401610e1090613d07565b60405180910390fd5b610e236000611c3b565b565b610e2d611840565b73ffffffffffffffffffffffffffffffffffffffff16610e4b610f64565b73ffffffffffffffffffffffffffffffffffffffff1614610ea1576040517f08c379a0000000000000000000000000000000000000000000000000000000008152600401610e9890613d07565b60405180910390fd5b80600e8190555050565b610eb3611840565b73ffffffffffffffffffffffffffffffffffffffff16610ed1610f64565b73ffffffffffffffffffffffffffffffffffffffff1614610f27576040517f08c379a0000000000000000000000000000000000000000000000000000000008152600401610f1e90613d07565b60405180910390fd5b6000600190505b818111610f5957610f4683610f416109b8565b611d01565b8080610f51906140be565b915050610f2e565b505050565b600e5481565b6000600a60009054906101000a900473ffffffffffffffffffffffffffffffffffffffff16905090565b606060018054610f9d9061408c565b80601f0160208091040260200160405190810160405280929190818152602001828054610fc99061408c565b80156110165780601f10610feb57610100808354040283529160200191611016565b820191906000526020600020905b815481529060010190602001808311610ff957829003601f168201915b5050505050905090565b600b805461102d9061408c565b80601f01602080910402602001604051908101604052809291908181526020018280546110599061408c565b80156110a65780601f1061107b576101008083540402835291602001916110a6565b820191906000526020600020905b81548152906001019060200180831161108957829003601f168201915b505050505081565b6110b6611840565b73ffffffffffffffffffffffffffffffffffffffff166110d4610f64565b73ffffffffffffffffffffffffffffffffffffffff161461112a576040517f08c379a000000000000000000000000000000000000000000000000000000000815260040161112190613d07565b60405180910390fd5b80600b9080519060200190611140929190612bdb565b5050565b600c60009054906101000a900460ff16611193576040517f08c379a000000000000000000000000000000000000000000000000000000000815260040161118a90613ba7565b60405180910390fd5b6000811180156111a55750600e548111155b6111e4576040517f08c379a00000000000000000000000000000000000000000000000000000000081526004016111db90613b07565b60405180910390fd5b60066111ee6109b8565b826111f99190613ec1565b111561123a576040517f08c379a000000000000000000000000000000000000000000000000000000000815260040161123190613aa7565b60405180910390fd5b80600d546112489190613f48565b34101561128a576040517f08c379a000000000000000000000000000000000000000000000000000000000815260040161128190613c27565b60405180910390fd5b60005b818110156112b9576112a6836112a16109b8565b611d01565b80806112b1906140be565b91505061128d565b505050565b6112d06112c9611840565b8383611d1f565b5050565b6112e56112df611840565b83611901565b611324576040517f08c379a000000000000000000000000000000000000000000000000000000000815260040161131b90613d87565b60405180910390fd5b61133084848484611e8c565b50505050565b61133e611840565b73ffffffffffffffffffffffffffffffffffffffff1661135c610f64565b73ffffffffffffffffffffffffffffffffffffffff16146113b2576040517f08c379a00000000000000000000000000000000000000000000000000000000081526004016113a990613d07565b60405180910390fd5b6001600c60006101000a81548160ff021916908315150217905550565b60606113da826117d4565b611419576040517f08c379a000000000000000000000000000000000000000000000000000000000815260040161141090613d47565b60405180910390fd5b6000611423611ee8565b90506000815111611443576040518060200160405280600081525061146e565b8061144d84611f7a565b60405160200161145e9291906139ca565b6040516020818303038152906040525b915050919050565b600681565b6000600560008473ffffffffffffffffffffffffffffffffffffffff1673ffffffffffffffffffffffffffffffffffffffff16815260200190815260200160002060008373ffffffffffffffffffffffffffffffffffffffff1673ffffffffffffffffffffffffffffffffffffffff16815260200190815260200160002060009054906101000a900460ff16905092915050565b611517611840565b73ffffffffffffffffffffffffffffffffffffffff16611535610f64565b73ffffffffffffffffffffffffffffffffffffffff161461158b576040517f08c379a000000000000000000000000000000000000000000000000000000000815260040161158290613d07565b60405180910390fd5b600073ffffffffffffffffffffffffffffffffffffffff168173ffffffffffffffffffffffffffffffffffffffff1614156115fb576040517f08c379a00000000000000000000000000000000000000000000000000000000081526004016115f290613b27565b60405180910390fd5b61160481611c3b565b50565b61160f611840565b73ffffffffffffffffffffffffffffffffffffffff1661162d610f64565b73ffffffffffffffffffffffffffffffffffffffff1614611683576040517f08c379a000000000000000000000000000000000000000000000000000000000815260040161167a90613d07565b60405180910390fd5b804710156116c6576040517f08c379a00000000000000000000000000000000000000000000000000000000081526004016116bd90613ca7565b60405180910390fd5b6116d08282612127565b5050565b6116dc611840565b73ffffffffffffffffffffffffffffffffffffffff166116fa610f64565b73ffffffffffffffffffffffffffffffffffffffff1614611750576040517f08c379a000000000000000000000000000000000000000000000000000000000815260040161174790613d07565b60405180910390fd5b80600d8190555050565b60007f780e9d63000000000000000000000000000000000000000000000000000000007bffffffffffffffffffffffffffffffffffffffffffffffffffffffff1916827bffffffffffffffffffffffffffffffffffffffffffffffffffffffff191614806117cd57506117cc8261221b565b5b9050919050565b60008073ffffffffffffffffffffffffffffffffffffffff166002600084815260200190815260200160002060009054906101000a900473ffffffffffffffffffffffffffffffffffffffff1673ffffffffffffffffffffffffffffffffffffffff1614159050919050565b600033905090565b816004600083815260200190815260200160002060006101000a81548173ffffffffffffffffffffffffffffffffffffffff021916908373ffffffffffffffffffffffffffffffffffffffff160217905550808273ffffffffffffffffffffffffffffffffffffffff166118bb83610c2d565b73ffffffffffffffffffffffffffffffffffffffff167f8c5be1e5ebec7d5bd14f71427d1e84f3dd0314c0f7b2291e5b200ac8c7c3b92560405160405180910390a45050565b600061190c826117d4565b61194b576040517f08c379a000000000000000000000000000000000000000000000000000000000815260040161194290613c07565b60405180910390fd5b600061195683610c2d565b90508073ffffffffffffffffffffffffffffffffffffffff168473ffffffffffffffffffffffffffffffffffffffff1614806119c557508373ffffffffffffffffffffffffffffffffffffffff166119ad8461081b565b73ffffffffffffffffffffffffffffffffffffffff16145b806119d657506119d5818561147b565b5b91505092915050565b8273ffffffffffffffffffffffffffffffffffffffff166119ff82610c2d565b73ffffffffffffffffffffffffffffffffffffffff1614611a55576040517f08c379a0000000000000000000000000000000000000000000000000000000008152600401611a4c90613d27565b60405180910390fd5b600073ffffffffffffffffffffffffffffffffffffffff168273ffffffffffffffffffffffffffffffffffffffff161415611ac5576040517f08c379a0000000000000000000000000000000000000000000000000000000008152600401611abc90613b67565b60405180910390fd5b611ad08383836122fd565b611adb600082611848565b6001600360008573ffffffffffffffffffffffffffffffffffffffff1673ffffffffffffffffffffffffffffffffffffffff1681526020019081526020016000206000828254611b2b9190613fa2565b925050819055506001600360008473ffffffffffffffffffffffffffffffffffffffff1673ffffffffffffffffffffffffffffffffffffffff1681526020019081526020016000206000828254611b829190613ec1565b92505081905550816002600083815260200190815260200160002060006101000a81548173ffffffffffffffffffffffffffffffffffffffff021916908373ffffffffffffffffffffffffffffffffffffffff160217905550808273ffffffffffffffffffffffffffffffffffffffff168473ffffffffffffffffffffffffffffffffffffffff167fddf252ad1be2c89b69c2b068fc378daa952ba7f163c4a11628f55a4df523b3ef60405160405180910390a4505050565b6000600a60009054906101000a900473ffffffffffffffffffffffffffffffffffffffff16905081600a60006101000a81548173ffffffffffffffffffffffffffffffffffffffff021916908373ffffffffffffffffffffffffffffffffffffffff1602179055508173ffffffffffffffffffffffffffffffffffffffff168173ffffffffffffffffffffffffffffffffffffffff167f8be0079c531659141344cd1fd0a4f28419497f9722a3daafe3b4186f6b6457e060405160405180910390a35050565b611d1b82826040518060200160405280600081525061230d565b5050565b8173ffffffffffffffffffffffffffffffffffffffff168373ffffffffffffffffffffffffffffffffffffffff161415611d8e576040517f08c379a0000000000000000000000000000000000000000000000000000000008152600401611d8590613b87565b60405180910390fd5b80600560008573ffffffffffffffffffffffffffffffffffffffff1673ffffffffffffffffffffffffffffffffffffffff16815260200190815260200160002060008473ffffffffffffffffffffffffffffffffffffffff1673ffffffffffffffffffffffffffffffffffffffff16815260200190815260200160002060006101000a81548160ff0219169083151502179055508173ffffffffffffffffffffffffffffffffffffffff168373ffffffffffffffffffffffffffffffffffffffff167f17307eab39ab6107e8899845ad3d59bd9653f200f220920489ca2b5937696c3183604051611e7f9190613a6a565b60405180910390a3505050565b611e978484846119df565b611ea384848484612368565b611ee2576040517f08c379a0000000000000000000000000000000000000000000000000000000008152600401611ed990613ae7565b60405180910390fd5b50505050565b6060600b8054611ef79061408c565b80601f0160208091040260200160405190810160405280929190818152602001828054611f239061408c565b8015611f705780601f10611f4557610100808354040283529160200191611f70565b820191906000526020600020905b815481529060010190602001808311611f5357829003601f168201915b5050505050905090565b60606000821415611fc2576040518060400160405280600181526020017f30000000000000000000000000000000000000000000000000000000000000008152509050612122565b600082905060005b60008214611ff4578080611fdd906140be565b915050600a82611fed9190613f17565b9150611fca565b60008167ffffffffffffffff811115612036577f4e487b7100000000000000000000000000000000000000000000000000000000600052604160045260246000fd5b6040519080825280601f01601f1916602001820160405280156120685781602001600182028036833780820191505090505b5090505b6000851461211b576001826120819190613fa2565b9150600a856120909190614107565b603061209c9190613ec1565b60f81b8183815181106120d8577f4e487b7100000000000000000000000000000000000000000000000000000000600052603260045260246000fd5b60200101907effffffffffffffffffffffffffffffffffffffffffffffffffffffffffffff1916908160001a905350600a856121149190613f17565b945061206c565b8093505050505b919050565b8047101561216a576040517f08c379a000000000000000000000000000000000000000000000000000000000815260040161216190613be7565b60405180910390fd5b60008273ffffffffffffffffffffffffffffffffffffffff1682604051612190906139ee565b60006040518083038185875af1925050503d80600081146121cd576040519150601f19603f3d011682016040523d82523d6000602084013e6121d2565b606091505b5050905080612216576040517f08c379a000000000000000000000000000000000000000000000000000000000815260040161220d90613bc7565b60405180910390fd5b505050565b60007f80ac58cd000000000000000000000000000000000000000000000000000000007bffffffffffffffffffffffffffffffffffffffffffffffffffffffff1916827bffffffffffffffffffffffffffffffffffffffffffffffffffffffff191614806122e657507f5b5e139f000000000000000000000000000000000000000000000000000000007bffffffffffffffffffffffffffffffffffffffffffffffffffffffff1916827bffffffffffffffffffffffffffffffffffffffffffffffffffffffff1916145b806122f657506122f5826124ff565b5b9050919050565b612308838383612569565b505050565b612317838361267d565b6123246000848484612368565b612363576040517f08c379a000000000000000000000000000000000000000000000000000000000815260040161235a90613ae7565b60405180910390fd5b505050565b60006123898473ffffffffffffffffffffffffffffffffffffffff1661284b565b156124f2578373ffffffffffffffffffffffffffffffffffffffff1663150b7a026123b2611840565b8786866040518563ffffffff1660e01b81526004016123d49493929190613a1e565b602060405180830381600087803b1580156123ee57600080fd5b505af192505050801561241f57506040513d601f19601f8201168201806040525081019061241c9190612f87565b60015b6124a2573d806000811461244f576040519150601f19603f3d011682016040523d82523d6000602084013e612454565b606091505b5060008151141561249a576040517f08c379a000000000000000000000000000000000000000000000000000000000815260040161249190613ae7565b60405180910390fd5b805181602001fd5b63150b7a0260e01b7bffffffffffffffffffffffffffffffffffffffffffffffffffffffff1916817bffffffffffffffffffffffffffffffffffffffffffffffffffffffff1916149150506124f7565b600190505b949350505050565b60007f01ffc9a7000000000000000000000000000000000000000000000000000000007bffffffffffffffffffffffffffffffffffffffffffffffffffffffff1916827bffffffffffffffffffffffffffffffffffffffffffffffffffffffff1916149050919050565b61257483838361285e565b600073ffffffffffffffffffffffffffffffffffffffff168373ffffffffffffffffffffffffffffffffffffffff1614156125b7576125b281612863565b6125f6565b8173ffffffffffffffffffffffffffffffffffffffff168373ffffffffffffffffffffffffffffffffffffffff16146125f5576125f483826128ac565b5b5b600073ffffffffffffffffffffffffffffffffffffffff168273ffffffffffffffffffffffffffffffffffffffff1614156126395761263481612a19565b612678565b8273ffffffffffffffffffffffffffffffffffffffff168273ffffffffffffffffffffffffffffffffffffffff1614612677576126768282612b5c565b5b5b505050565b600073ffffffffffffffffffffffffffffffffffffffff168273ffffffffffffffffffffffffffffffffffffffff1614156126ed576040517f08c379a00000000000000000000000000000000000000000000000000000000081526004016126e490613cc7565b60405180910390fd5b6126f6816117d4565b15612736576040517f08c379a000000000000000000000000000000000000000000000000000000000815260040161272d90613b47565b60405180910390fd5b612742600083836122fd565b6001600360008473ffffffffffffffffffffffffffffffffffffffff1673ffffffffffffffffffffffffffffffffffffffff16815260200190815260200160002060008282546127929190613ec1565b92505081905550816002600083815260200190815260200160002060006101000a81548173ffffffffffffffffffffffffffffffffffffffff021916908373ffffffffffffffffffffffffffffffffffffffff160217905550808273ffffffffffffffffffffffffffffffffffffffff16600073ffffffffffffffffffffffffffffffffffffffff167fddf252ad1be2c89b69c2b068fc378daa952ba7f163c4a11628f55a4df523b3ef60405160405180910390a45050565b600080823b905060008111915050919050565b505050565b6008805490506009600083815260200190815260200160002081905550600881908060018154018082558091505060019003906000526020600020016000909190919091505550565b600060016128b984610ce5565b6128c39190613fa2565b90506000600760008481526020019081526020016000205490508181146129a8576000600660008673ffffffffffffffffffffffffffffffffffffffff1673ffffffffffffffffffffffffffffffffffffffff168152602001908152602001600020600084815260200190815260200160002054905080600660008773ffffffffffffffffffffffffffffffffffffffff1673ffffffffffffffffffffffffffffffffffffffff168152602001908152602001600020600084815260200190815260200160002081905550816007600083815260200190815260200160002081905550505b6007600084815260200190815260200160002060009055600660008573ffffffffffffffffffffffffffffffffffffffff1673ffffffffffffffffffffffffffffffffffffffff16815260200190815260200160002060008381526020019081526020016000206000905550505050565b60006001600880549050612a2d9190613fa2565b9050600060096000848152602001908152602001600020549050600060088381548110612a83577f4e487b7100000000000000000000000000000000000000000000000000000000600052603260045260246000fd5b906000526020600020015490508060088381548110612acb577f4e487b7100000000000000000000000000000000000000000000000000000000600052603260045260246000fd5b906000526020600020018190555081600960008381526020019081526020016000208190555060096000858152602001908152602001600020600090556008805480612b40577f4e487b7100000000000000000000000000000000000000000000000000000000600052603160045260246000fd5b6001900381819060005260206000200160009055905550505050565b6000612b6783610ce5565b905081600660008573ffffffffffffffffffffffffffffffffffffffff1673ffffffffffffffffffffffffffffffffffffffff168152602001908152602001600020600083815260200190815260200160002081905550806007600084815260200190815260200160002081905550505050565b828054612be79061408c565b90600052602060002090601f016020900481019282612c095760008555612c50565b82601f10612c2257805160ff1916838001178555612c50565b82800160010185558215612c50579182015b82811115612c4f578251825591602001919060010190612c34565b5b509050612c5d9190612c61565b5090565b5b80821115612c7a576000816000905550600101612c62565b5090565b6000612c91612c8c84613e13565b613de2565b905082815260208101848484011115612ca957600080fd5b612cb484828561404a565b509392505050565b6000612ccf612cca84613e43565b613de2565b905082815260208101848484011115612ce757600080fd5b612cf284828561404a565b509392505050565b600081359050612d0981614205565b92915050565b600081359050612d1e8161421c565b92915050565b600081359050612d3381614233565b92915050565b600081519050612d4881614233565b92915050565b600082601f830112612d5f57600080fd5b8135612d6f848260208601612c7e565b91505092915050565b600082601f830112612d8957600080fd5b8135612d99848260208601612cbc565b91505092915050565b600081359050612db18161424a565b92915050565b600060208284031215612dc957600080fd5b6000612dd784828501612cfa565b91505092915050565b60008060408385031215612df357600080fd5b6000612e0185828601612cfa565b9250506020612e1285828601612cfa565b9150509250929050565b600080600060608486031215612e3157600080fd5b6000612e3f86828701612cfa565b9350506020612e5086828701612cfa565b9250506040612e6186828701612da2565b9150509250925092565b60008060008060808587031215612e8157600080fd5b6000612e8f87828801612cfa565b9450506020612ea087828801612cfa565b9350506040612eb187828801612da2565b925050606085013567ffffffffffffffff811115612ece57600080fd5b612eda87828801612d4e565b91505092959194509250565b60008060408385031215612ef957600080fd5b6000612f0785828601612cfa565b9250506020612f1885828601612d0f565b9150509250929050565b60008060408385031215612f3557600080fd5b6000612f4385828601612cfa565b9250506020612f5485828601612da2565b9150509250929050565b600060208284031215612f7057600080fd5b6000612f7e84828501612d24565b91505092915050565b600060208284031215612f9957600080fd5b6000612fa784828501612d39565b91505092915050565b600060208284031215612fc257600080fd5b600082013567ffffffffffffffff811115612fdc57600080fd5b612fe884828501612d78565b91505092915050565b60006020828403121561300357600080fd5b600061301184828501612da2565b91505092915050565b61302381613fd6565b82525050565b61303281613fe8565b82525050565b600061304382613e73565b61304d8185613e89565b935061305d818560208601614059565b613066816141f4565b840191505092915050565b600061307c82613e7e565b6130868185613ea5565b9350613096818560208601614059565b61309f816141f4565b840191505092915050565b60006130b582613e7e565b6130bf8185613eb6565b93506130cf818560208601614059565b80840191505092915050565b60006130e8601e83613ea5565b91507f4e6f7420656e6f7567687420746f6b656e73206c65667420746f2062757900006000830152602082019050919050565b6000613128602b83613ea5565b91507f455243373231456e756d657261626c653a206f776e657220696e646578206f7560008301527f74206f6620626f756e64730000000000000000000000000000000000000000006020830152604082019050919050565b600061318e603283613ea5565b91507f4552433732313a207472616e7366657220746f206e6f6e20455243373231526560008301527f63656976657220696d706c656d656e74657200000000000000000000000000006020830152604082019050919050565b60006131f4603383613ea5565b91507f416d6f756e74206f6620746f6b656e732065786365656473206d617820746f6b60008301527f656e7320706572207472616e73616374696f6e000000000000000000000000006020830152604082019050919050565b600061325a602683613ea5565b91507f4f776e61626c653a206e6577206f776e657220697320746865207a65726f206160008301527f64647265737300000000000000000000000000000000000000000000000000006020830152604082019050919050565b60006132c0601c83613ea5565b91507f4552433732313a20746f6b656e20616c7265616479206d696e746564000000006000830152602082019050919050565b6000613300602483613ea5565b91507f4552433732313a207472616e7366657220746f20746865207a65726f2061646460008301527f72657373000000000000000000000000000000000000000000000000000000006020830152604082019050919050565b6000613366601983613ea5565b91507f4552433732313a20617070726f766520746f2063616c6c6572000000000000006000830152602082019050919050565b60006133a6601283613ea5565b91507f53616c65206973206e6f742061637469766500000000000000000000000000006000830152602082019050919050565b60006133e6603a83613ea5565b91507f416464726573733a20756e61626c6520746f2073656e642076616c75652c207260008301527f6563697069656e74206d617920686176652072657665727465640000000000006020830152604082019050919050565b600061344c601d83613ea5565b91507f416464726573733a20696e73756666696369656e742062616c616e63650000006000830152602082019050919050565b600061348c602c83613ea5565b91507f4552433732313a206f70657261746f7220717565727920666f72206e6f6e657860008301527f697374656e7420746f6b656e00000000000000000000000000000000000000006020830152604082019050919050565b60006134f2602283613ea5565b91507f416d6f756e74206f662065746865722073656e74206973206e6f7420656e6f7560008301527f67680000000000000000000000000000000000000000000000000000000000006020830152604082019050919050565b6000613558603883613ea5565b91507f4552433732313a20617070726f76652063616c6c6572206973206e6f74206f7760008301527f6e6572206e6f7220617070726f76656420666f7220616c6c00000000000000006020830152604082019050919050565b60006135be602a83613ea5565b91507f4552433732313a2062616c616e636520717565727920666f7220746865207a6560008301527f726f2061646472657373000000000000000000000000000000000000000000006020830152604082019050919050565b6000613624602983613ea5565b91507f4552433732313a206f776e657220717565727920666f72206e6f6e657869737460008301527f656e7420746f6b656e00000000000000000000000000000000000000000000006020830152604082019050919050565b600061368a601d83613ea5565b91507f4e6f7420656e6f7567687420657468657220746f2077697468647261770000006000830152602082019050919050565b60006136ca602083613ea5565b91507f4552433732313a206d696e7420746f20746865207a65726f20616464726573736000830152602082019050919050565b600061370a602c83613ea5565b91507f4552433732313a20617070726f76656420717565727920666f72206e6f6e657860008301527f697374656e7420746f6b656e00000000000000000000000000000000000000006020830152604082019050919050565b6000613770602083613ea5565b91507f4f776e61626c653a2063616c6c6572206973206e6f7420746865206f776e65726000830152602082019050919050565b60006137b0602983613ea5565b91507f4552433732313a207472616e73666572206f6620746f6b656e2074686174206960008301527f73206e6f74206f776e00000000000000000000000000000000000000000000006020830152604082019050919050565b6000613816602f83613ea5565b91507f4552433732314d657461646174613a2055524920717565727920666f72206e6f60008301527f6e6578697374656e7420746f6b656e00000000000000000000000000000000006020830152604082019050919050565b600061387c602183613ea5565b91507f4552433732313a20617070726f76616c20746f2063757272656e74206f776e6560008301527f72000000000000000000000000000000000000000000000000000000000000006020830152604082019050919050565b60006138e2600083613e9a565b9150600082019050919050565b60006138fc603183613ea5565b91507f4552433732313a207472616e736665722063616c6c6572206973206e6f74206f60008301527f776e6572206e6f7220617070726f7665640000000000000000000000000000006020830152604082019050919050565b6000613962602c83613ea5565b91507f455243373231456e756d657261626c653a20676c6f62616c20696e646578206f60008301527f7574206f6620626f756e647300000000000000000000000000000000000000006020830152604082019050919050565b6139c481614040565b82525050565b60006139d682856130aa565b91506139e282846130aa565b91508190509392505050565b60006139f9826138d5565b9150819050919050565b6000602082019050613a18600083018461301a565b92915050565b6000608082019050613a33600083018761301a565b613a40602083018661301a565b613a4d60408301856139bb565b8181036060830152613a5f8184613038565b905095945050505050565b6000602082019050613a7f6000830184613029565b92915050565b60006020820190508181036000830152613a9f8184613071565b905092915050565b60006020820190508181036000830152613ac0816130db565b9050919050565b60006020820190508181036000830152613ae08161311b565b9050919050565b60006020820190508181036000830152613b0081613181565b9050919050565b60006020820190508181036000830152613b20816131e7565b9050919050565b60006020820190508181036000830152613b408161324d565b9050919050565b60006020820190508181036000830152613b60816132b3565b9050919050565b60006020820190508181036000830152613b80816132f3565b9050919050565b60006020820190508181036000830152613ba081613359565b9050919050565b60006020820190508181036000830152613bc081613399565b9050919050565b60006020820190508181036000830152613be0816133d9565b9050919050565b60006020820190508181036000830152613c008161343f565b9050919050565b60006020820190508181036000830152613c208161347f565b9050919050565b60006020820190508181036000830152613c40816134e5565b9050919050565b60006020820190508181036000830152613c608161354b565b9050919050565b60006020820190508181036000830152613c80816135b1565b9050919050565b60006020820190508181036000830152613ca081613617565b9050919050565b60006020820190508181036000830152613cc08161367d565b9050919050565b60006020820190508181036000830152613ce0816136bd565b9050919050565b60006020820190508181036000830152613d00816136fd565b9050919050565b60006020820190508181036000830152613d2081613763565b9050919050565b60006020820190508181036000830152613d40816137a3565b9050919050565b60006020820190508181036000830152613d6081613809565b9050919050565b60006020820190508181036000830152613d808161386f565b9050919050565b60006020820190508181036000830152613da0816138ef565b9050919050565b60006020820190508181036000830152613dc081613955565b9050919050565b6000602082019050613ddc60008301846139bb565b92915050565b6000604051905081810181811067ffffffffffffffff82111715613e0957613e086141c5565b5b8060405250919050565b600067ffffffffffffffff821115613e2e57613e2d6141c5565b5b601f19601f8301169050602081019050919050565b600067ffffffffffffffff821115613e5e57613e5d6141c5565b5b601f19601f8301169050602081019050919050565b600081519050919050565b600081519050919050565b600082825260208201905092915050565b600081905092915050565b600082825260208201905092915050565b600081905092915050565b6000613ecc82614040565b9150613ed783614040565b9250827fffffffffffffffffffffffffffffffffffffffffffffffffffffffffffffffff03821115613f0c57613f0b614138565b5b828201905092915050565b6000613f2282614040565b9150613f2d83614040565b925082613f3d57613f3c614167565b5b828204905092915050565b6000613f5382614040565b9150613f5e83614040565b9250817fffffffffffffffffffffffffffffffffffffffffffffffffffffffffffffffff0483118215151615613f9757613f96614138565b5b828202905092915050565b6000613fad82614040565b9150613fb883614040565b925082821015613fcb57613fca614138565b5b828203905092915050565b6000613fe182614020565b9050919050565b60008115159050919050565b60007fffffffff0000000000000000000000000000000000000000000000000000000082169050919050565b600073ffffffffffffffffffffffffffffffffffffffff82169050919050565b6000819050919050565b82818337600083830152505050565b60005b8381101561407757808201518184015260208101905061405c565b83811115614086576000848401525b50505050565b600060028204905060018216806140a457607f821691505b602082108114156140b8576140b7614196565b5b50919050565b60006140c982614040565b91507fffffffffffffffffffffffffffffffffffffffffffffffffffffffffffffffff8214156140fc576140fb614138565b5b600182019050919050565b600061411282614040565b915061411d83614040565b92508261412d5761412c614167565b5b828206905092915050565b7f4e487b7100000000000000000000000000000000000000000000000000000000600052601160045260246000fd5b7f4e487b7100000000000000000000000000000000000000000000000000000000600052601260045260246000fd5b7f4e487b7100000000000000000000000000000000000000000000000000000000600052602260045260246000fd5b7f4e487b7100000000000000000000000000000000000000000000000000000000600052604160045260246000fd5b6000601f19601f8301169050919050565b61420e81613fd6565b811461421957600080fd5b50565b61422581613fe8565b811461423057600080fd5b50565b61423c81613ff4565b811461424757600080fd5b50565b61425381614040565b811461425e57600080fd5b5056fea2646970667358221220aafcd0a7ac70ac511380bf5f311c628183d0fc0be2db23fc51abb32ba7e9391864736f6c63430008000033697066733a2f2f516d55353553324c365879447959436635347a3969584d726e3974336b5873714b4c556d5154416438754e704b582f",
  "linkReferences": {},
  "deployedLinkReferences": {}
}