{
  "_format": "hh-sol-artifact-1",
  "contractName": "NFTSkulls2022",
  "sourceName": "contracts/NFTSkulls2022.sol",
  "abi": [
    {
      "inputs": [],
      "stateMutability": "nonpayable",
      "type": "constructor"
    },
    {
      "anonymous": false,
      "inputs": [
        {
          "indexed": true,
          "internalType": "address",
          "name": "owner",
          "type": "address"
        },
        {
          "indexed": true,
          "internalType": "address",
          "name": "approved",
          "type": "address"
        },
        {
          "indexed": true,
          "internalType": "uint256",
          "name": "tokenId",
          "type": "uint256"
        }
      ],
      "name": "Approval",
      "type": "event"
    },
    {
      "anonymous": false,
      "inputs": [
        {
          "indexed": true,
          "internalType": "address",
          "name": "owner",
          "type": "address"
        },
        {
          "indexed": true,
          "internalType": "address",
          "name": "operator",
          "type": "address"
        },
        {
          "indexed": false,
          "internalType": "bool",
          "name": "approved",
          "type": "bool"
        }
      ],
      "name": "ApprovalForAll",
      "type": "event"
    },
    {
      "anonymous": false,
      "inputs": [
        {
          "indexed": true,
          "internalType": "address",
          "name": "previousOwner",
          "type": "address"
        },
        {
          "indexed": true,
          "internalType": "address",
          "name": "newOwner",
          "type": "address"
        }
      ],
      "name": "OwnershipTransferred",
      "type": "event"
    },
    {
      "anonymous": false,
      "inputs": [
        {
          "indexed": true,
          "internalType": "address",
          "name": "from",
          "type": "address"
        },
        {
          "indexed": true,
          "internalType": "address",
          "name": "to",
          "type": "address"
        },
        {
          "indexed": true,
          "internalType": "uint256",
          "name": "tokenId",
          "type": "uint256"
        }
      ],
      "name": "Transfer",
      "type": "event"
    },
    {
      "inputs": [],
      "name": "MAX_TOKEN_COUNT",
      "outputs": [
        {
          "internalType": "uint256",
          "name": "",
          "type": "uint256"
        }
      ],
      "stateMutability": "view",
      "type": "function"
    },
    {
      "inputs": [
        {
          "internalType": "address",
          "name": "to",
          "type": "address"
        },
        {
          "internalType": "uint256",
          "name": "tokenId",
          "type": "uint256"
        }
      ],
      "name": "approve",
      "outputs": [],
      "stateMutability": "nonpayable",
      "type": "function"
    },
    {
      "inputs": [
        {
          "internalType": "address",
          "name": "owner",
          "type": "address"
        }
      ],
      "name": "balanceOf",
      "outputs": [
        {
          "internalType": "uint256",
          "name": "",
          "type": "uint256"
        }
      ],
      "stateMutability": "view",
      "type": "function"
    },
    {
      "inputs": [],
      "name": "baseUri",
      "outputs": [
        {
          "internalType": "string",
          "name": "",
          "type": "string"
        }
      ],
      "stateMutability": "view",
      "type": "function"
    },
    {
      "inputs": [
        {
          "internalType": "uint256",
          "name": "tokenId",
          "type": "uint256"
        }
      ],
      "name": "getApproved",
      "outputs": [
        {
          "internalType": "address",
          "name": "",
          "type": "address"
        }
      ],
      "stateMutability": "view",
      "type": "function"
    },
    {
      "inputs": [
        {
          "internalType": "address",
          "name": "owner",
          "type": "address"
        },
        {
          "internalType": "address",
          "name": "operator",
          "type": "address"
        }
      ],
      "name": "isApprovedForAll",
      "outputs": [
        {
          "internalType": "bool",
          "name": "",
          "type": "bool"
        }
      ],
      "stateMutability": "view",
      "type": "function"
    },
    {
      "inputs": [],
      "name": "isSaleActive",
      "outputs": [
        {
          "internalType": "bool",
          "name": "",
          "type": "bool"
        }
      ],
      "stateMutability": "view",
      "type": "function"
    },
    {
      "inputs": [],
      "name": "maxTokenCountPerTx",
      "outputs": [
        {
          "internalType": "uint256",
          "name": "",
          "type": "uint256"
        }
      ],
      "stateMutability": "view",
      "type": "function"
    },
    {
      "inputs": [],
      "name": "mintPrice",
      "outputs": [
        {
          "internalType": "uint256",
          "name": "",
          "type": "uint256"
        }
      ],
      "stateMutability": "view",
      "type": "function"
    },
    {
      "inputs": [],
      "name": "name",
      "outputs": [
        {
          "internalType": "string",
          "name": "",
          "type": "string"
        }
      ],
      "stateMutability": "view",
      "type": "function"
    },
    {
      "inputs": [],
      "name": "owner",
      "outputs": [
        {
          "internalType": "address",
          "name": "",
          "type": "address"
        }
      ],
      "stateMutability": "view",
      "type": "function"
    },
    {
      "inputs": [
        {
          "internalType": "uint256",
          "name": "tokenId",
          "type": "uint256"
        }
      ],
      "name": "ownerOf",
      "outputs": [
        {
          "internalType": "address",
          "name": "",
          "type": "address"
        }
      ],
      "stateMutability": "view",
      "type": "function"
    },
    {
      "inputs": [],
      "name": "pauseSale",
      "outputs": [],
      "stateMutability": "nonpayable",
      "type": "function"
    },
    {
      "inputs": [],
      "name": "renounceOwnership",
      "outputs": [],
      "stateMutability": "nonpayable",
      "type": "function"
    },
    {
      "inputs": [
        {
          "internalType": "address",
          "name": "to",
          "type": "address"
        },
        {
          "internalType": "uint256",
          "name": "amount",
          "type": "uint256"
        }
      ],
      "name": "reserveTokens",
      "outputs": [],
      "stateMutability": "nonpayable",
      "type": "function"
    },
    {
      "inputs": [
        {
          "internalType": "address",
          "name": "to",
          "type": "address"
        },
        {
          "internalType": "uint256",
          "name": "amount",
          "type": "uint256"
        }
      ],
      "name": "safeMint",
      "outputs": [],
      "stateMutability": "payable",
      "type": "function"
    },
    {
      "inputs": [
        {
          "internalType": "address",
          "name": "from",
          "type": "address"
        },
        {
          "internalType": "address",
          "name": "to",
          "type": "address"
        },
        {
          "internalType": "uint256",
          "name": "tokenId",
          "type": "uint256"
        }
      ],
      "name": "safeTransferFrom",
      "outputs": [],
      "stateMutability": "nonpayable",
      "type": "function"
    },
    {
      "inputs": [
        {
          "internalType": "address",
          "name": "from",
          "type": "address"
        },
        {
          "internalType": "address",
          "name": "to",
          "type": "address"
        },
        {
          "internalType": "uint256",
          "name": "tokenId",
          "type": "uint256"
        },
        {
          "internalType": "bytes",
          "name": "_data",
          "type": "bytes"
        }
      ],
      "name": "safeTransferFrom",
      "outputs": [],
      "stateMutability": "nonpayable",
      "type": "function"
    },
    {
      "inputs": [
        {
          "internalType": "address",
          "name": "operator",
          "type": "address"
        },
        {
          "internalType": "bool",
          "name": "approved",
          "type": "bool"
        }
      ],
      "name": "setApprovalForAll",
      "outputs": [],
      "stateMutability": "nonpayable",
      "type": "function"
    },
    {
      "inputs": [
        {
          "internalType": "string",
          "name": "newBaseUri",
          "type": "string"
        }
      ],
      "name": "setBaseUri",
      "outputs": [],
      "stateMutability": "nonpayable",
      "type": "function"
    },
    {
      "inputs": [
        {
          "internalType": "uint256",
          "name": "newMaxTokenCountPerTx",
          "type": "uint256"
        }
      ],
      "name": "setMaxTokenCountPerTx",
      "outputs": [],
      "stateMutability": "nonpayable",
      "type": "function"
    },
    {
      "inputs": [
        {
          "internalType": "uint256",
          "name": "newPrice",
          "type": "uint256"
        }
      ],
      "name": "setMintPrice",
      "outputs": [],
      "stateMutability": "nonpayable",
      "type": "function"
    },
    {
      "inputs": [
        {
          "internalType": "bytes4",
          "name": "interfaceId",
          "type": "bytes4"
        }
      ],
      "name": "supportsInterface",
      "outputs": [
        {
          "internalType": "bool",
          "name": "",
          "type": "bool"
        }
      ],
      "stateMutability": "view",
      "type": "function"
    },
    {
      "inputs": [],
      "name": "symbol",
      "outputs": [
        {
          "internalType": "string",
          "name": "",
          "type": "string"
        }
      ],
      "stateMutability": "view",
      "type": "function"
    },
    {
      "inputs": [
        {
          "internalType": "uint256",
          "name": "index",
          "type": "uint256"
        }
      ],
      "name": "tokenByIndex",
      "outputs": [
        {
          "internalType": "uint256",
          "name": "",
          "type": "uint256"
        }
      ],
      "stateMutability": "view",
      "type": "function"
    },
    {
      "inputs": [
        {
          "internalType": "address",
          "name": "owner",
          "type": "address"
        },
        {
          "internalType": "uint256",
          "name": "index",
          "type": "uint256"
        }
      ],
      "name": "tokenOfOwnerByIndex",
      "outputs": [
        {
          "internalType": "uint256",
          "name": "",
          "type": "uint256"
        }
      ],
      "stateMutability": "view",
      "type": "function"
    },
    {
      "inputs": [
        {
          "internalType": "uint256",
          "name": "tokenId",
          "type": "uint256"
        }
      ],
      "name": "tokenURI",
      "outputs": [
        {
          "internalType": "string",
          "name": "",
          "type": "string"
        }
      ],
      "stateMutability": "view",
      "type": "function"
    },
    {
      "inputs": [],
      "name": "totalSupply",
      "outputs": [
        {
          "internalType": "uint256",
          "name": "",
          "type": "uint256"
        }
      ],
      "stateMutability": "view",
      "type": "function"
    },
    {
      "inputs": [
        {
          "internalType": "address",
          "name": "from",
          "type": "address"
        },
        {
          "internalType": "address",
          "name": "to",
          "type": "address"
        },
        {
          "internalType": "uint256",
          "name": "tokenId",
          "type": "uint256"
        }
      ],
      "name": "transferFrom",
      "outputs": [],
      "stateMutability": "nonpayable",
      "type": "function"
    },
    {
      "inputs": [
        {
          "internalType": "address",
          "name": "newOwner",
          "type": "address"
        }
      ],
      "name": "transferOwnership",
      "outputs": [],
      "stateMutability": "nonpayable",
      "type": "function"
    },
    {
      "inputs": [],
      "name": "unpauseSale",
      "outputs": [],
      "stateMutability": "nonpayable",
      "type": "function"
    },
    {
      "inputs": [
        {
          "internalType": "uint256",
          "name": "amount",
          "type": "uint256"
        }
      ],
      "name": "withdraw",
      "outputs": [],
      "stateMutability": "nonpayable",
      "type": "function"
    }
  ],
  "bytecode": "0x6080604052604051806060016040528060368152602001620045be60369139600b90805190602001906200003592919062000203565b506000600c60006101000a81548160ff02191690831515021790555066038d7ea4c68000600d556002600e553480156200006e57600080fd5b506040518060400160405280600d81526020017f4e4654536b756c6c7332303232000000000000000000000000000000000000008152506040518060400160405280600881526020017f4e465453323032320000000000000000000000000000000000000000000000008152508160009080519060200190620000f392919062000203565b5080600190805190602001906200010c92919062000203565b5050506200012f620001236200013560201b60201c565b6200013d60201b60201c565b62000318565b600033905090565b6000600a60009054906101000a900473ffffffffffffffffffffffffffffffffffffffff16905081600a60006101000a81548173ffffffffffffffffffffffffffffffffffffffff021916908373ffffffffffffffffffffffffffffffffffffffff1602179055508173ffffffffffffffffffffffffffffffffffffffff168173ffffffffffffffffffffffffffffffffffffffff167f8be0079c531659141344cd1fd0a4f28419497f9722a3daafe3b4186f6b6457e060405160405180910390a35050565b8280546200021190620002b3565b90600052602060002090601f01602090048101928262000235576000855562000281565b82601f106200025057805160ff191683800117855562000281565b8280016001018555821562000281579182015b828111156200028057825182559160200191906001019062000263565b5b50905062000290919062000294565b5090565b5b80821115620002af57600081600090555060010162000295565b5090565b60006002820490506001821680620002cc57607f821691505b60208210811415620002e357620002e2620002e9565b5b50919050565b7f4e487b7100000000000000000000000000000000000000000000000000000000600052602260045260246000fd5b61429680620003286000396000f3fe6080604052600436106101e35760003560e01c8063763dabee11610102578063a22cb46511610095578063d0bbb0d711610064578063d0bbb0d7146106bd578063e985e9c5146106e8578063f2fde38b14610725578063f4a0a5281461074e576101e3565b8063a22cb46514610617578063b88d4fde14610640578063bb33d72914610669578063c87b56dd14610680576101e3565b806395d89b41116100d157806395d89b411461057c5780639abc8320146105a7578063a0bcfc7f146105d2578063a1448194146105fb576101e3565b8063763dabee146104d457806378cf19e9146104fd57806384b502d4146105265780638da5cb5b14610551576101e3565b806342842e0e1161017a5780636352211e116101495780636352211e146104185780636817c76c1461045557806370a0823114610480578063715018a6146104bd576101e3565b806342842e0e146103705780634f6ccce71461039957806355367ba9146103d6578063564566a8146103ed576101e3565b806318160ddd116101b657806318160ddd146102b657806323b872dd146102e15780632e1a7d4d1461030a5780632f745c5914610333576101e3565b806301ffc9a7146101e857806306fdde0314610225578063081812fc14610250578063095ea7b31461028d575b600080fd5b3480156101f457600080fd5b5061020f600480360381019061020a9190612f5d565b610777565b60405161021c9190613a69565b60405180910390f35b34801561023157600080fd5b5061023a610789565b6040516102479190613a84565b60405180910390f35b34801561025c57600080fd5b5061027760048036038101906102729190612ff0565b61081b565b6040516102849190613a02565b60405180910390f35b34801561029957600080fd5b506102b460048036038101906102af9190612f21565b6108a0565b005b3480156102c257600080fd5b506102cb6109b8565b6040516102d89190613dc6565b60405180910390f35b3480156102ed57600080fd5b5061030860048036038101906103039190612e1b565b6109c5565b005b34801561031657600080fd5b50610331600480360381019061032c9190612ff0565b610a25565b005b34801561033f57600080fd5b5061035a60048036038101906103559190612f21565b610af1565b6040516103679190613dc6565b60405180910390f35b34801561037c57600080fd5b5061039760048036038101906103929190612e1b565b610b96565b005b3480156103a557600080fd5b506103c060048036038101906103bb9190612ff0565b610bb6565b6040516103cd9190613dc6565b60405180910390f35b3480156103e257600080fd5b506103eb610c4d565b005b3480156103f957600080fd5b50610402610ce6565b60405161040f9190613a69565b60405180910390f35b34801561042457600080fd5b5061043f600480360381019061043a9190612ff0565b610cf9565b60405161044c9190613a02565b60405180910390f35b34801561046157600080fd5b5061046a610dab565b6040516104779190613dc6565b60405180910390f35b34801561048c57600080fd5b506104a760048036038101906104a29190612db6565b610db1565b6040516104b49190613dc6565b60405180910390f35b3480156104c957600080fd5b506104d2610e69565b005b3480156104e057600080fd5b506104fb60048036038101906104f69190612ff0565b610ef1565b005b34801561050957600080fd5b50610524600480360381019061051f9190612f21565b610f77565b005b34801561053257600080fd5b5061053b61102a565b6040516105489190613dc6565b60405180910390f35b34801561055d57600080fd5b50610566611030565b6040516105739190613a02565b60405180910390f35b34801561058857600080fd5b5061059161105a565b60405161059e9190613a84565b60405180910390f35b3480156105b357600080fd5b506105bc6110ec565b6040516105c99190613a84565b60405180910390f35b3480156105de57600080fd5b506105f960048036038101906105f49190612faf565b61117a565b005b61061560048036038101906106109190612f21565b611210565b005b34801561062357600080fd5b5061063e60048036038101906106399190612ee5565b61138a565b005b34801561064c57600080fd5b5061066760048036038101906106629190612e6a565b6113a0565b005b34801561067557600080fd5b5061067e611402565b005b34801561068c57600080fd5b506106a760048036038101906106a29190612ff0565b61149b565b6040516106b49190613a84565b60405180910390f35b3480156106c957600080fd5b506106d2611542565b6040516106df9190613dc6565b60405180910390f35b3480156106f457600080fd5b5061070f600480360381019061070a9190612ddf565b611547565b60405161071c9190613a69565b60405180910390f35b34801561073157600080fd5b5061074c60048036038101906107479190612db6565b6115db565b005b34801561075a57600080fd5b5061077560048036038101906107709190612ff0565b6116d3565b005b600061078282611759565b9050919050565b6060600080546107989061408b565b80601f01602080910402602001604051908101604052809291908181526020018280546107c49061408b565b80156108115780601f106107e657610100808354040283529160200191610811565b820191906000526020600020905b8154815290600101906020018083116107f457829003601f168201915b5050505050905090565b6000610826826117d3565b610865576040517f08c379a000000000000000000000000000000000000000000000000000000000815260040161085c90613ce6565b60405180910390fd5b6004600083815260200190815260200160002060009054906101000a900473ffffffffffffffffffffffffffffffffffffffff169050919050565b60006108ab82610cf9565b90508073ffffffffffffffffffffffffffffffffffffffff168373ffffffffffffffffffffffffffffffffffffffff16141561091c576040517f08c379a000000000000000000000000000000000000000000000000000000000815260040161091390613d66565b60405180910390fd5b8073ffffffffffffffffffffffffffffffffffffffff1661093b61183f565b73ffffffffffffffffffffffffffffffffffffffff16148061096a57506109698161096461183f565b611547565b5b6109a9576040517f08c379a00000000000000000000000000000000000000000000000000000000081526004016109a090613c46565b60405180910390fd5b6109b38383611847565b505050565b6000600880549050905090565b6109d66109d061183f565b82611900565b610a15576040517f08c379a0000000000000000000000000000000000000000000000000000000008152600401610a0c90613d86565b60405180910390fd5b610a208383836119de565b505050565b610a2d61183f565b73ffffffffffffffffffffffffffffffffffffffff16610a4b611030565b73ffffffffffffffffffffffffffffffffffffffff1614610aa1576040517f08c379a0000000000000000000000000000000000000000000000000000000008152600401610a9890613d06565b60405180910390fd5b80471015610ae4576040517f08c379a0000000000000000000000000000000000000000000000000000000008152600401610adb90613ca6565b60405180910390fd5b610aee3382611c3a565b50565b6000610afc83610db1565b8210610b3d576040517f08c379a0000000000000000000000000000000000000000000000000000000008152600401610b3490613ac6565b60405180910390fd5b600660008473ffffffffffffffffffffffffffffffffffffffff1673ffffffffffffffffffffffffffffffffffffffff168152602001908152602001600020600083815260200190815260200160002054905092915050565b610bb1838383604051806020016040528060008152506113a0565b505050565b6000610bc06109b8565b8210610c01576040517f08c379a0000000000000000000000000000000000000000000000000000000008152600401610bf890613da6565b60405180910390fd5b60088281548110610c3b577f4e487b7100000000000000000000000000000000000000000000000000000000600052603260045260246000fd5b90600052602060002001549050919050565b610c5561183f565b73ffffffffffffffffffffffffffffffffffffffff16610c73611030565b73ffffffffffffffffffffffffffffffffffffffff1614610cc9576040517f08c379a0000000000000000000000000000000000000000000000000000000008152600401610cc090613d06565b60405180910390fd5b6000600c60006101000a81548160ff021916908315150217905550565b600c60009054906101000a900460ff1681565b6000806002600084815260200190815260200160002060009054906101000a900473ffffffffffffffffffffffffffffffffffffffff169050600073ffffffffffffffffffffffffffffffffffffffff168173ffffffffffffffffffffffffffffffffffffffff161415610da2576040517f08c379a0000000000000000000000000000000000000000000000000000000008152600401610d9990613c86565b60405180910390fd5b80915050919050565b600d5481565b60008073ffffffffffffffffffffffffffffffffffffffff168273ffffffffffffffffffffffffffffffffffffffff161415610e22576040517f08c379a0000000000000000000000000000000000000000000000000000000008152600401610e1990613c66565b60405180910390fd5b600360008373ffffffffffffffffffffffffffffffffffffffff1673ffffffffffffffffffffffffffffffffffffffff168152602001908152602001600020549050919050565b610e7161183f565b73ffffffffffffffffffffffffffffffffffffffff16610e8f611030565b73ffffffffffffffffffffffffffffffffffffffff1614610ee5576040517f08c379a0000000000000000000000000000000000000000000000000000000008152600401610edc90613d06565b60405180910390fd5b610eef6000611d2e565b565b610ef961183f565b73ffffffffffffffffffffffffffffffffffffffff16610f17611030565b73ffffffffffffffffffffffffffffffffffffffff1614610f6d576040517f08c379a0000000000000000000000000000000000000000000000000000000008152600401610f6490613d06565b60405180910390fd5b80600e8190555050565b610f7f61183f565b73ffffffffffffffffffffffffffffffffffffffff16610f9d611030565b73ffffffffffffffffffffffffffffffffffffffff1614610ff3576040517f08c379a0000000000000000000000000000000000000000000000000000000008152600401610fea90613d06565b60405180910390fd5b6000600190505b818111611025576110128361100d6109b8565b611df4565b808061101d906140bd565b915050610ffa565b505050565b600e5481565b6000600a60009054906101000a900473ffffffffffffffffffffffffffffffffffffffff16905090565b6060600180546110699061408b565b80601f01602080910402602001604051908101604052809291908181526020018280546110959061408b565b80156110e25780601f106110b7576101008083540402835291602001916110e2565b820191906000526020600020905b8154815290600101906020018083116110c557829003601f168201915b5050505050905090565b600b80546110f99061408b565b80601f01602080910402602001604051908101604052809291908181526020018280546111259061408b565b80156111725780601f1061114757610100808354040283529160200191611172565b820191906000526020600020905b81548152906001019060200180831161115557829003601f168201915b505050505081565b61118261183f565b73ffffffffffffffffffffffffffffffffffffffff166111a0611030565b73ffffffffffffffffffffffffffffffffffffffff16146111f6576040517f08c379a00000000000000000000000000000000000000000000000000000000081526004016111ed90613d06565b60405180910390fd5b80600b908051906020019061120c929190612bda565b5050565b600c60009054906101000a900460ff1661125f576040517f08c379a000000000000000000000000000000000000000000000000000000000815260040161125690613ba6565b60405180910390fd5b6000811180156112715750600e548111155b6112b0576040517f08c379a00000000000000000000000000000000000000000000000000000000081526004016112a790613b06565b60405180910390fd5b60066112ba6109b8565b826112c59190613ec0565b1115611306576040517f08c379a00000000000000000000000000000000000000000000000000000000081526004016112fd90613aa6565b60405180910390fd5b80600d546113149190613f47565b341015611356576040517f08c379a000000000000000000000000000000000000000000000000000000000815260040161134d90613c26565b60405180910390fd5b60005b81811015611385576113728361136d6109b8565b611df4565b808061137d906140bd565b915050611359565b505050565b61139c61139561183f565b8383611e12565b5050565b6113b16113ab61183f565b83611900565b6113f0576040517f08c379a00000000000000000000000000000000000000000000000000000000081526004016113e790613d86565b60405180910390fd5b6113fc84848484611f7f565b50505050565b61140a61183f565b73ffffffffffffffffffffffffffffffffffffffff16611428611030565b73ffffffffffffffffffffffffffffffffffffffff161461147e576040517f08c379a000000000000000000000000000000000000000000000000000000000815260040161147590613d06565b60405180910390fd5b6001600c60006101000a81548160ff021916908315150217905550565b60606114a6826117d3565b6114e5576040517f08c379a00000000000000000000000000000000000000000000000000000000081526004016114dc90613d46565b60405180910390fd5b60006114ef611fdb565b9050600081511161150f576040518060200160405280600081525061153a565b806115198461206d565b60405160200161152a9291906139c9565b6040516020818303038152906040525b915050919050565b600681565b6000600560008473ffffffffffffffffffffffffffffffffffffffff1673ffffffffffffffffffffffffffffffffffffffff16815260200190815260200160002060008373ffffffffffffffffffffffffffffffffffffffff1673ffffffffffffffffffffffffffffffffffffffff16815260200190815260200160002060009054906101000a900460ff16905092915050565b6115e361183f565b73ffffffffffffffffffffffffffffffffffffffff16611601611030565b73ffffffffffffffffffffffffffffffffffffffff1614611657576040517f08c379a000000000000000000000000000000000000000000000000000000000815260040161164e90613d06565b60405180910390fd5b600073ffffffffffffffffffffffffffffffffffffffff168173ffffffffffffffffffffffffffffffffffffffff1614156116c7576040517f08c379a00000000000000000000000000000000000000000000000000000000081526004016116be90613b26565b60405180910390fd5b6116d081611d2e565b50565b6116db61183f565b73ffffffffffffffffffffffffffffffffffffffff166116f9611030565b73ffffffffffffffffffffffffffffffffffffffff161461174f576040517f08c379a000000000000000000000000000000000000000000000000000000000815260040161174690613d06565b60405180910390fd5b80600d8190555050565b60007f780e9d63000000000000000000000000000000000000000000000000000000007bffffffffffffffffffffffffffffffffffffffffffffffffffffffff1916827bffffffffffffffffffffffffffffffffffffffffffffffffffffffff191614806117cc57506117cb8261221a565b5b9050919050565b60008073ffffffffffffffffffffffffffffffffffffffff166002600084815260200190815260200160002060009054906101000a900473ffffffffffffffffffffffffffffffffffffffff1673ffffffffffffffffffffffffffffffffffffffff1614159050919050565b600033905090565b816004600083815260200190815260200160002060006101000a81548173ffffffffffffffffffffffffffffffffffffffff021916908373ffffffffffffffffffffffffffffffffffffffff160217905550808273ffffffffffffffffffffffffffffffffffffffff166118ba83610cf9565b73ffffffffffffffffffffffffffffffffffffffff167f8c5be1e5ebec7d5bd14f71427d1e84f3dd0314c0f7b2291e5b200ac8c7c3b92560405160405180910390a45050565b600061190b826117d3565b61194a576040517f08c379a000000000000000000000000000000000000000000000000000000000815260040161194190613c06565b60405180910390fd5b600061195583610cf9565b90508073ffffffffffffffffffffffffffffffffffffffff168473ffffffffffffffffffffffffffffffffffffffff1614806119c457508373ffffffffffffffffffffffffffffffffffffffff166119ac8461081b565b73ffffffffffffffffffffffffffffffffffffffff16145b806119d557506119d48185611547565b5b91505092915050565b8273ffffffffffffffffffffffffffffffffffffffff166119fe82610cf9565b73ffffffffffffffffffffffffffffffffffffffff1614611a54576040517f08c379a0000000000000000000000000000000000000000000000000000000008152600401611a4b90613d26565b60405180910390fd5b600073ffffffffffffffffffffffffffffffffffffffff168273ffffffffffffffffffffffffffffffffffffffff161415611ac4576040517f08c379a0000000000000000000000000000000000000000000000000000000008152600401611abb90613b66565b60405180910390fd5b611acf8383836122fc565b611ada600082611847565b6001600360008573ffffffffffffffffffffffffffffffffffffffff1673ffffffffffffffffffffffffffffffffffffffff1681526020019081526020016000206000828254611b2a9190613fa1565b925050819055506001600360008473ffffffffffffffffffffffffffffffffffffffff1673ffffffffffffffffffffffffffffffffffffffff1681526020019081526020016000206000828254611b819190613ec0565b92505081905550816002600083815260200190815260200160002060006101000a81548173ffffffffffffffffffffffffffffffffffffffff021916908373ffffffffffffffffffffffffffffffffffffffff160217905550808273ffffffffffffffffffffffffffffffffffffffff168473ffffffffffffffffffffffffffffffffffffffff167fddf252ad1be2c89b69c2b068fc378daa952ba7f163c4a11628f55a4df523b3ef60405160405180910390a4505050565b80471015611c7d576040517f08c379a0000000000000000000000000000000000000000000000000000000008152600401611c7490613be6565b60405180910390fd5b60008273ffffffffffffffffffffffffffffffffffffffff1682604051611ca3906139ed565b60006040518083038185875af1925050503d8060008114611ce0576040519150601f19603f3d011682016040523d82523d6000602084013e611ce5565b606091505b5050905080611d29576040517f08c379a0000000000000000000000000000000000000000000000000000000008152600401611d2090613bc6565b60405180910390fd5b505050565b6000600a60009054906101000a900473ffffffffffffffffffffffffffffffffffffffff16905081600a60006101000a81548173ffffffffffffffffffffffffffffffffffffffff021916908373ffffffffffffffffffffffffffffffffffffffff1602179055508173ffffffffffffffffffffffffffffffffffffffff168173ffffffffffffffffffffffffffffffffffffffff167f8be0079c531659141344cd1fd0a4f28419497f9722a3daafe3b4186f6b6457e060405160405180910390a35050565b611e0e82826040518060200160405280600081525061230c565b5050565b8173ffffffffffffffffffffffffffffffffffffffff168373ffffffffffffffffffffffffffffffffffffffff161415611e81576040517f08c379a0000000000000000000000000000000000000000000000000000000008152600401611e7890613b86565b60405180910390fd5b80600560008573ffffffffffffffffffffffffffffffffffffffff1673ffffffffffffffffffffffffffffffffffffffff16815260200190815260200160002060008473ffffffffffffffffffffffffffffffffffffffff1673ffffffffffffffffffffffffffffffffffffffff16815260200190815260200160002060006101000a81548160ff0219169083151502179055508173ffffffffffffffffffffffffffffffffffffffff168373ffffffffffffffffffffffffffffffffffffffff167f17307eab39ab6107e8899845ad3d59bd9653f200f220920489ca2b5937696c3183604051611f729190613a69565b60405180910390a3505050565b611f8a8484846119de565b611f9684848484612367565b611fd5576040517f08c379a0000000000000000000000000000000000000000000000000000000008152600401611fcc90613ae6565b60405180910390fd5b50505050565b6060600b8054611fea9061408b565b80601f01602080910402602001604051908101604052809291908181526020018280546120169061408b565b80156120635780601f1061203857610100808354040283529160200191612063565b820191906000526020600020905b81548152906001019060200180831161204657829003601f168201915b5050505050905090565b606060008214156120b5576040518060400160405280600181526020017f30000000000000000000000000000000000000000000000000000000000000008152509050612215565b600082905060005b600082146120e75780806120d0906140bd565b915050600a826120e09190613f16565b91506120bd565b60008167ffffffffffffffff811115612129577f4e487b7100000000000000000000000000000000000000000000000000000000600052604160045260246000fd5b6040519080825280601f01601f19166020018201604052801561215b5781602001600182028036833780820191505090505b5090505b6000851461220e576001826121749190613fa1565b9150600a856121839190614106565b603061218f9190613ec0565b60f81b8183815181106121cb577f4e487b7100000000000000000000000000000000000000000000000000000000600052603260045260246000fd5b60200101907effffffffffffffffffffffffffffffffffffffffffffffffffffffffffffff1916908160001a905350600a856122079190613f16565b945061215f565b8093505050505b919050565b60007f80ac58cd000000000000000000000000000000000000000000000000000000007bffffffffffffffffffffffffffffffffffffffffffffffffffffffff1916827bffffffffffffffffffffffffffffffffffffffffffffffffffffffff191614806122e557507f5b5e139f000000000000000000000000000000000000000000000000000000007bffffffffffffffffffffffffffffffffffffffffffffffffffffffff1916827bffffffffffffffffffffffffffffffffffffffffffffffffffffffff1916145b806122f557506122f4826124fe565b5b9050919050565b612307838383612568565b505050565b612316838361267c565b6123236000848484612367565b612362576040517f08c379a000000000000000000000000000000000000000000000000000000000815260040161235990613ae6565b60405180910390fd5b505050565b60006123888473ffffffffffffffffffffffffffffffffffffffff1661284a565b156124f1578373ffffffffffffffffffffffffffffffffffffffff1663150b7a026123b161183f565b8786866040518563ffffffff1660e01b81526004016123d39493929190613a1d565b602060405180830381600087803b1580156123ed57600080fd5b505af192505050801561241e57506040513d601f19601f8201168201806040525081019061241b9190612f86565b60015b6124a1573d806000811461244e576040519150601f19603f3d011682016040523d82523d6000602084013e612453565b606091505b50600081511415612499576040517f08c379a000000000000000000000000000000000000000000000000000000000815260040161249090613ae6565b60405180910390fd5b805181602001fd5b63150b7a0260e01b7bffffffffffffffffffffffffffffffffffffffffffffffffffffffff1916817bffffffffffffffffffffffffffffffffffffffffffffffffffffffff1916149150506124f6565b600190505b949350505050565b60007f01ffc9a7000000000000000000000000000000000000000000000000000000007bffffffffffffffffffffffffffffffffffffffffffffffffffffffff1916827bffffffffffffffffffffffffffffffffffffffffffffffffffffffff1916149050919050565b61257383838361285d565b600073ffffffffffffffffffffffffffffffffffffffff168373ffffffffffffffffffffffffffffffffffffffff1614156125b6576125b181612862565b6125f5565b8173ffffffffffffffffffffffffffffffffffffffff168373ffffffffffffffffffffffffffffffffffffffff16146125f4576125f383826128ab565b5b5b600073ffffffffffffffffffffffffffffffffffffffff168273ffffffffffffffffffffffffffffffffffffffff1614156126385761263381612a18565b612677565b8273ffffffffffffffffffffffffffffffffffffffff168273ffffffffffffffffffffffffffffffffffffffff1614612676576126758282612b5b565b5b5b505050565b600073ffffffffffffffffffffffffffffffffffffffff168273ffffffffffffffffffffffffffffffffffffffff1614156126ec576040517f08c379a00000000000000000000000000000000000000000000000000000000081526004016126e390613cc6565b60405180910390fd5b6126f5816117d3565b15612735576040517f08c379a000000000000000000000000000000000000000000000000000000000815260040161272c90613b46565b60405180910390fd5b612741600083836122fc565b6001600360008473ffffffffffffffffffffffffffffffffffffffff1673ffffffffffffffffffffffffffffffffffffffff16815260200190815260200160002060008282546127919190613ec0565b92505081905550816002600083815260200190815260200160002060006101000a81548173ffffffffffffffffffffffffffffffffffffffff021916908373ffffffffffffffffffffffffffffffffffffffff160217905550808273ffffffffffffffffffffffffffffffffffffffff16600073ffffffffffffffffffffffffffffffffffffffff167fddf252ad1be2c89b69c2b068fc378daa952ba7f163c4a11628f55a4df523b3ef60405160405180910390a45050565b600080823b905060008111915050919050565b505050565b6008805490506009600083815260200190815260200160002081905550600881908060018154018082558091505060019003906000526020600020016000909190919091505550565b600060016128b884610db1565b6128c29190613fa1565b90506000600760008481526020019081526020016000205490508181146129a7576000600660008673ffffffffffffffffffffffffffffffffffffffff1673ffffffffffffffffffffffffffffffffffffffff168152602001908152602001600020600084815260200190815260200160002054905080600660008773ffffffffffffffffffffffffffffffffffffffff1673ffffffffffffffffffffffffffffffffffffffff168152602001908152602001600020600084815260200190815260200160002081905550816007600083815260200190815260200160002081905550505b6007600084815260200190815260200160002060009055600660008573ffffffffffffffffffffffffffffffffffffffff1673ffffffffffffffffffffffffffffffffffffffff16815260200190815260200160002060008381526020019081526020016000206000905550505050565b60006001600880549050612a2c9190613fa1565b9050600060096000848152602001908152602001600020549050600060088381548110612a82577f4e487b7100000000000000000000000000000000000000000000000000000000600052603260045260246000fd5b906000526020600020015490508060088381548110612aca577f4e487b7100000000000000000000000000000000000000000000000000000000600052603260045260246000fd5b906000526020600020018190555081600960008381526020019081526020016000208190555060096000858152602001908152602001600020600090556008805480612b3f577f4e487b7100000000000000000000000000000000000000000000000000000000600052603160045260246000fd5b6001900381819060005260206000200160009055905550505050565b6000612b6683610db1565b905081600660008573ffffffffffffffffffffffffffffffffffffffff1673ffffffffffffffffffffffffffffffffffffffff168152602001908152602001600020600083815260200190815260200160002081905550806007600084815260200190815260200160002081905550505050565b828054612be69061408b565b90600052602060002090601f016020900481019282612c085760008555612c4f565b82601f10612c2157805160ff1916838001178555612c4f565b82800160010185558215612c4f579182015b82811115612c4e578251825591602001919060010190612c33565b5b509050612c5c9190612c60565b5090565b5b80821115612c79576000816000905550600101612c61565b5090565b6000612c90612c8b84613e12565b613de1565b905082815260208101848484011115612ca857600080fd5b612cb3848285614049565b509392505050565b6000612cce612cc984613e42565b613de1565b905082815260208101848484011115612ce657600080fd5b612cf1848285614049565b509392505050565b600081359050612d0881614204565b92915050565b600081359050612d1d8161421b565b92915050565b600081359050612d3281614232565b92915050565b600081519050612d4781614232565b92915050565b600082601f830112612d5e57600080fd5b8135612d6e848260208601612c7d565b91505092915050565b600082601f830112612d8857600080fd5b8135612d98848260208601612cbb565b91505092915050565b600081359050612db081614249565b92915050565b600060208284031215612dc857600080fd5b6000612dd684828501612cf9565b91505092915050565b60008060408385031215612df257600080fd5b6000612e0085828601612cf9565b9250506020612e1185828601612cf9565b9150509250929050565b600080600060608486031215612e3057600080fd5b6000612e3e86828701612cf9565b9350506020612e4f86828701612cf9565b9250506040612e6086828701612da1565b9150509250925092565b60008060008060808587031215612e8057600080fd5b6000612e8e87828801612cf9565b9450506020612e9f87828801612cf9565b9350506040612eb087828801612da1565b925050606085013567ffffffffffffffff811115612ecd57600080fd5b612ed987828801612d4d565b91505092959194509250565b60008060408385031215612ef857600080fd5b6000612f0685828601612cf9565b9250506020612f1785828601612d0e565b9150509250929050565b60008060408385031215612f3457600080fd5b6000612f4285828601612cf9565b9250506020612f5385828601612da1565b9150509250929050565b600060208284031215612f6f57600080fd5b6000612f7d84828501612d23565b91505092915050565b600060208284031215612f9857600080fd5b6000612fa684828501612d38565b91505092915050565b600060208284031215612fc157600080fd5b600082013567ffffffffffffffff811115612fdb57600080fd5b612fe784828501612d77565b91505092915050565b60006020828403121561300257600080fd5b600061301084828501612da1565b91505092915050565b61302281613fd5565b82525050565b61303181613fe7565b82525050565b600061304282613e72565b61304c8185613e88565b935061305c818560208601614058565b613065816141f3565b840191505092915050565b600061307b82613e7d565b6130858185613ea4565b9350613095818560208601614058565b61309e816141f3565b840191505092915050565b60006130b482613e7d565b6130be8185613eb5565b93506130ce818560208601614058565b80840191505092915050565b60006130e7601e83613ea4565b91507f4e6f7420656e6f7567687420746f6b656e73206c65667420746f2062757900006000830152602082019050919050565b6000613127602b83613ea4565b91507f455243373231456e756d657261626c653a206f776e657220696e646578206f7560008301527f74206f6620626f756e64730000000000000000000000000000000000000000006020830152604082019050919050565b600061318d603283613ea4565b91507f4552433732313a207472616e7366657220746f206e6f6e20455243373231526560008301527f63656976657220696d706c656d656e74657200000000000000000000000000006020830152604082019050919050565b60006131f3603383613ea4565b91507f416d6f756e74206f6620746f6b656e732065786365656473206d617820746f6b60008301527f656e7320706572207472616e73616374696f6e000000000000000000000000006020830152604082019050919050565b6000613259602683613ea4565b91507f4f776e61626c653a206e6577206f776e657220697320746865207a65726f206160008301527f64647265737300000000000000000000000000000000000000000000000000006020830152604082019050919050565b60006132bf601c83613ea4565b91507f4552433732313a20746f6b656e20616c7265616479206d696e746564000000006000830152602082019050919050565b60006132ff602483613ea4565b91507f4552433732313a207472616e7366657220746f20746865207a65726f2061646460008301527f72657373000000000000000000000000000000000000000000000000000000006020830152604082019050919050565b6000613365601983613ea4565b91507f4552433732313a20617070726f766520746f2063616c6c6572000000000000006000830152602082019050919050565b60006133a5601283613ea4565b91507f53616c65206973206e6f742061637469766500000000000000000000000000006000830152602082019050919050565b60006133e5603a83613ea4565b91507f416464726573733a20756e61626c6520746f2073656e642076616c75652c207260008301527f6563697069656e74206d617920686176652072657665727465640000000000006020830152604082019050919050565b600061344b601d83613ea4565b91507f416464726573733a20696e73756666696369656e742062616c616e63650000006000830152602082019050919050565b600061348b602c83613ea4565b91507f4552433732313a206f70657261746f7220717565727920666f72206e6f6e657860008301527f697374656e7420746f6b656e00000000000000000000000000000000000000006020830152604082019050919050565b60006134f1602283613ea4565b91507f416d6f756e74206f662065746865722073656e74206973206e6f7420656e6f7560008301527f67680000000000000000000000000000000000000000000000000000000000006020830152604082019050919050565b6000613557603883613ea4565b91507f4552433732313a20617070726f76652063616c6c6572206973206e6f74206f7760008301527f6e6572206e6f7220617070726f76656420666f7220616c6c00000000000000006020830152604082019050919050565b60006135bd602a83613ea4565b91507f4552433732313a2062616c616e636520717565727920666f7220746865207a6560008301527f726f2061646472657373000000000000000000000000000000000000000000006020830152604082019050919050565b6000613623602983613ea4565b91507f4552433732313a206f776e657220717565727920666f72206e6f6e657869737460008301527f656e7420746f6b656e00000000000000000000000000000000000000000000006020830152604082019050919050565b6000613689601d83613ea4565b91507f4e6f7420656e6f7567687420657468657220746f2077697468647261770000006000830152602082019050919050565b60006136c9602083613ea4565b91507f4552433732313a206d696e7420746f20746865207a65726f20616464726573736000830152602082019050919050565b6000613709602c83613ea4565b91507f4552433732313a20617070726f76656420717565727920666f72206e6f6e657860008301527f697374656e7420746f6b656e00000000000000000000000000000000000000006020830152604082019050919050565b600061376f602083613ea4565b91507f4f776e61626c653a2063616c6c6572206973206e6f7420746865206f776e65726000830152602082019050919050565b60006137af602983613ea4565b91507f4552433732313a207472616e73666572206f6620746f6b656e2074686174206960008301527f73206e6f74206f776e00000000000000000000000000000000000000000000006020830152604082019050919050565b6000613815602f83613ea4565b91507f4552433732314d657461646174613a2055524920717565727920666f72206e6f60008301527f6e6578697374656e7420746f6b656e00000000000000000000000000000000006020830152604082019050919050565b600061387b602183613ea4565b91507f4552433732313a20617070726f76616c20746f2063757272656e74206f776e6560008301527f72000000000000000000000000000000000000000000000000000000000000006020830152604082019050919050565b60006138e1600083613e99565b9150600082019050919050565b60006138fb603183613ea4565b91507f4552433732313a207472616e736665722063616c6c6572206973206e6f74206f60008301527f776e6572206e6f7220617070726f7665640000000000000000000000000000006020830152604082019050919050565b6000613961602c83613ea4565b91507f455243373231456e756d657261626c653a20676c6f62616c20696e646578206f60008301527f7574206f6620626f756e647300000000000000000000000000000000000000006020830152604082019050919050565b6139c38161403f565b82525050565b60006139d582856130a9565b91506139e182846130a9565b91508190509392505050565b60006139f8826138d4565b9150819050919050565b6000602082019050613a176000830184613019565b92915050565b6000608082019050613a326000830187613019565b613a3f6020830186613019565b613a4c60408301856139ba565b8181036060830152613a5e8184613037565b905095945050505050565b6000602082019050613a7e6000830184613028565b92915050565b60006020820190508181036000830152613a9e8184613070565b905092915050565b60006020820190508181036000830152613abf816130da565b9050919050565b60006020820190508181036000830152613adf8161311a565b9050919050565b60006020820190508181036000830152613aff81613180565b9050919050565b60006020820190508181036000830152613b1f816131e6565b9050919050565b60006020820190508181036000830152613b3f8161324c565b9050919050565b60006020820190508181036000830152613b5f816132b2565b9050919050565b60006020820190508181036000830152613b7f816132f2565b9050919050565b60006020820190508181036000830152613b9f81613358565b9050919050565b60006020820190508181036000830152613bbf81613398565b9050919050565b60006020820190508181036000830152613bdf816133d8565b9050919050565b60006020820190508181036000830152613bff8161343e565b9050919050565b60006020820190508181036000830152613c1f8161347e565b9050919050565b60006020820190508181036000830152613c3f816134e4565b9050919050565b60006020820190508181036000830152613c5f8161354a565b9050919050565b60006020820190508181036000830152613c7f816135b0565b9050919050565b60006020820190508181036000830152613c9f81613616565b9050919050565b60006020820190508181036000830152613cbf8161367c565b9050919050565b60006020820190508181036000830152613cdf816136bc565b9050919050565b60006020820190508181036000830152613cff816136fc565b9050919050565b60006020820190508181036000830152613d1f81613762565b9050919050565b60006020820190508181036000830152613d3f816137a2565b9050919050565b60006020820190508181036000830152613d5f81613808565b9050919050565b60006020820190508181036000830152613d7f8161386e565b9050919050565b60006020820190508181036000830152613d9f816138ee565b9050919050565b60006020820190508181036000830152613dbf81613954565b9050919050565b6000602082019050613ddb60008301846139ba565b92915050565b6000604051905081810181811067ffffffffffffffff82111715613e0857613e076141c4565b5b8060405250919050565b600067ffffffffffffffff821115613e2d57613e2c6141c4565b5b601f19601f8301169050602081019050919050565b600067ffffffffffffffff821115613e5d57613e5c6141c4565b5b601f19601f8301169050602081019050919050565b600081519050919050565b600081519050919050565b600082825260208201905092915050565b600081905092915050565b600082825260208201905092915050565b600081905092915050565b6000613ecb8261403f565b9150613ed68361403f565b9250827fffffffffffffffffffffffffffffffffffffffffffffffffffffffffffffffff03821115613f0b57613f0a614137565b5b828201905092915050565b6000613f218261403f565b9150613f2c8361403f565b925082613f3c57613f3b614166565b5b828204905092915050565b6000613f528261403f565b9150613f5d8361403f565b9250817fffffffffffffffffffffffffffffffffffffffffffffffffffffffffffffffff0483118215151615613f9657613f95614137565b5b828202905092915050565b6000613fac8261403f565b9150613fb78361403f565b925082821015613fca57613fc9614137565b5b828203905092915050565b6000613fe08261401f565b9050919050565b60008115159050919050565b60007fffffffff0000000000000000000000000000000000000000000000000000000082169050919050565b600073ffffffffffffffffffffffffffffffffffffffff82169050919050565b6000819050919050565b82818337600083830152505050565b60005b8381101561407657808201518184015260208101905061405b565b83811115614085576000848401525b50505050565b600060028204905060018216806140a357607f821691505b602082108114156140b7576140b6614195565b5b50919050565b60006140c88261403f565b91507fffffffffffffffffffffffffffffffffffffffffffffffffffffffffffffffff8214156140fb576140fa614137565b5b600182019050919050565b60006141118261403f565b915061411c8361403f565b92508261412c5761412b614166565b5b828206905092915050565b7f4e487b7100000000000000000000000000000000000000000000000000000000600052601160045260246000fd5b7f4e487b7100000000000000000000000000000000000000000000000000000000600052601260045260246000fd5b7f4e487b7100000000000000000000000000000000000000000000000000000000600052602260045260246000fd5b7f4e487b7100000000000000000000000000000000000000000000000000000000600052604160045260246000fd5b6000601f19601f8301169050919050565b61420d81613fd5565b811461421857600080fd5b50565b61422481613fe7565b811461422f57600080fd5b50565b61423b81613ff3565b811461424657600080fd5b50565b6142528161403f565b811461425d57600080fd5b5056fea26469706673582212208b2f0e6d7c7fb5af7b3f8bc50c7f2a86d3939188f02a3fb6937def96745b4b9564736f6c63430008000033697066733a2f2f516d57796759344c3558344a4d38356b736e52387347784143665470616163537968326e574c35697a51334d694b2f",
  "linkReferences": {},
  "deployedLinkReferences": {}
}