{
  "_format": "hh-sol-artifact-1",
  "contractName": "NFTSkulls2022",
  "sourceName": "contracts/NFTSkulls2022.sol",
  "abi": [
    {
      "inputs": [],
      "stateMutability": "nonpayable",
      "type": "constructor"
    },
    {
      "anonymous": false,
      "inputs": [
        {
          "indexed": true,
          "internalType": "address",
          "name": "owner",
          "type": "address"
        },
        {
          "indexed": true,
          "internalType": "address",
          "name": "approved",
          "type": "address"
        },
        {
          "indexed": true,
          "internalType": "uint256",
          "name": "tokenId",
          "type": "uint256"
        }
      ],
      "name": "Approval",
      "type": "event"
    },
    {
      "anonymous": false,
      "inputs": [
        {
          "indexed": true,
          "internalType": "address",
          "name": "owner",
          "type": "address"
        },
        {
          "indexed": true,
          "internalType": "address",
          "name": "operator",
          "type": "address"
        },
        {
          "indexed": false,
          "internalType": "bool",
          "name": "approved",
          "type": "bool"
        }
      ],
      "name": "ApprovalForAll",
      "type": "event"
    },
    {
      "anonymous": false,
      "inputs": [
        {
          "indexed": true,
          "internalType": "address",
          "name": "previousOwner",
          "type": "address"
        },
        {
          "indexed": true,
          "internalType": "address",
          "name": "newOwner",
          "type": "address"
        }
      ],
      "name": "OwnershipTransferred",
      "type": "event"
    },
    {
      "anonymous": false,
      "inputs": [
        {
          "indexed": true,
          "internalType": "address",
          "name": "from",
          "type": "address"
        },
        {
          "indexed": true,
          "internalType": "address",
          "name": "to",
          "type": "address"
        },
        {
          "indexed": true,
          "internalType": "uint256",
          "name": "tokenId",
          "type": "uint256"
        }
      ],
      "name": "Transfer",
      "type": "event"
    },
    {
      "inputs": [],
      "name": "MAX_TOKEN_COUNT",
      "outputs": [
        {
          "internalType": "uint256",
          "name": "",
          "type": "uint256"
        }
      ],
      "stateMutability": "view",
      "type": "function"
    },
    {
      "inputs": [
        {
          "internalType": "address",
          "name": "to",
          "type": "address"
        },
        {
          "internalType": "uint256",
          "name": "tokenId",
          "type": "uint256"
        }
      ],
      "name": "approve",
      "outputs": [],
      "stateMutability": "nonpayable",
      "type": "function"
    },
    {
      "inputs": [
        {
          "internalType": "address",
          "name": "owner",
          "type": "address"
        }
      ],
      "name": "balanceOf",
      "outputs": [
        {
          "internalType": "uint256",
          "name": "",
          "type": "uint256"
        }
      ],
      "stateMutability": "view",
      "type": "function"
    },
    {
      "inputs": [],
      "name": "baseUri",
      "outputs": [
        {
          "internalType": "string",
          "name": "",
          "type": "string"
        }
      ],
      "stateMutability": "view",
      "type": "function"
    },
    {
      "inputs": [
        {
          "internalType": "uint256",
          "name": "tokenId",
          "type": "uint256"
        }
      ],
      "name": "getApproved",
      "outputs": [
        {
          "internalType": "address",
          "name": "",
          "type": "address"
        }
      ],
      "stateMutability": "view",
      "type": "function"
    },
    {
      "inputs": [
        {
          "internalType": "address",
          "name": "owner",
          "type": "address"
        },
        {
          "internalType": "address",
          "name": "operator",
          "type": "address"
        }
      ],
      "name": "isApprovedForAll",
      "outputs": [
        {
          "internalType": "bool",
          "name": "",
          "type": "bool"
        }
      ],
      "stateMutability": "view",
      "type": "function"
    },
    {
      "inputs": [],
      "name": "isSaleActive",
      "outputs": [
        {
          "internalType": "bool",
          "name": "",
          "type": "bool"
        }
      ],
      "stateMutability": "view",
      "type": "function"
    },
    {
      "inputs": [],
      "name": "maxTokenCountPerTransaction",
      "outputs": [
        {
          "internalType": "uint256",
          "name": "",
          "type": "uint256"
        }
      ],
      "stateMutability": "view",
      "type": "function"
    },
    {
      "inputs": [],
      "name": "mintPrice",
      "outputs": [
        {
          "internalType": "uint256",
          "name": "",
          "type": "uint256"
        }
      ],
      "stateMutability": "view",
      "type": "function"
    },
    {
      "inputs": [],
      "name": "name",
      "outputs": [
        {
          "internalType": "string",
          "name": "",
          "type": "string"
        }
      ],
      "stateMutability": "view",
      "type": "function"
    },
    {
      "inputs": [],
      "name": "owner",
      "outputs": [
        {
          "internalType": "address",
          "name": "",
          "type": "address"
        }
      ],
      "stateMutability": "view",
      "type": "function"
    },
    {
      "inputs": [
        {
          "internalType": "uint256",
          "name": "tokenId",
          "type": "uint256"
        }
      ],
      "name": "ownerOf",
      "outputs": [
        {
          "internalType": "address",
          "name": "",
          "type": "address"
        }
      ],
      "stateMutability": "view",
      "type": "function"
    },
    {
      "inputs": [],
      "name": "pauseSale",
      "outputs": [],
      "stateMutability": "nonpayable",
      "type": "function"
    },
    {
      "inputs": [],
      "name": "renounceOwnership",
      "outputs": [],
      "stateMutability": "nonpayable",
      "type": "function"
    },
    {
      "inputs": [
        {
          "internalType": "address",
          "name": "to",
          "type": "address"
        },
        {
          "internalType": "uint256",
          "name": "amount",
          "type": "uint256"
        }
      ],
      "name": "safeMint",
      "outputs": [],
      "stateMutability": "payable",
      "type": "function"
    },
    {
      "inputs": [
        {
          "internalType": "address",
          "name": "from",
          "type": "address"
        },
        {
          "internalType": "address",
          "name": "to",
          "type": "address"
        },
        {
          "internalType": "uint256",
          "name": "tokenId",
          "type": "uint256"
        }
      ],
      "name": "safeTransferFrom",
      "outputs": [],
      "stateMutability": "nonpayable",
      "type": "function"
    },
    {
      "inputs": [
        {
          "internalType": "address",
          "name": "from",
          "type": "address"
        },
        {
          "internalType": "address",
          "name": "to",
          "type": "address"
        },
        {
          "internalType": "uint256",
          "name": "tokenId",
          "type": "uint256"
        },
        {
          "internalType": "bytes",
          "name": "_data",
          "type": "bytes"
        }
      ],
      "name": "safeTransferFrom",
      "outputs": [],
      "stateMutability": "nonpayable",
      "type": "function"
    },
    {
      "inputs": [
        {
          "internalType": "address",
          "name": "operator",
          "type": "address"
        },
        {
          "internalType": "bool",
          "name": "approved",
          "type": "bool"
        }
      ],
      "name": "setApprovalForAll",
      "outputs": [],
      "stateMutability": "nonpayable",
      "type": "function"
    },
    {
      "inputs": [
        {
          "internalType": "string",
          "name": "newBaseUri",
          "type": "string"
        }
      ],
      "name": "setBaseUri",
      "outputs": [],
      "stateMutability": "nonpayable",
      "type": "function"
    },
    {
      "inputs": [
        {
          "internalType": "uint256",
          "name": "newMaxTokenCountPerTransaction",
          "type": "uint256"
        }
      ],
      "name": "setMaxTokenCountPerTransaction",
      "outputs": [],
      "stateMutability": "nonpayable",
      "type": "function"
    },
    {
      "inputs": [
        {
          "internalType": "uint256",
          "name": "newPrice",
          "type": "uint256"
        }
      ],
      "name": "setMintPrice",
      "outputs": [],
      "stateMutability": "nonpayable",
      "type": "function"
    },
    {
      "inputs": [
        {
          "internalType": "bytes4",
          "name": "interfaceId",
          "type": "bytes4"
        }
      ],
      "name": "supportsInterface",
      "outputs": [
        {
          "internalType": "bool",
          "name": "",
          "type": "bool"
        }
      ],
      "stateMutability": "view",
      "type": "function"
    },
    {
      "inputs": [],
      "name": "symbol",
      "outputs": [
        {
          "internalType": "string",
          "name": "",
          "type": "string"
        }
      ],
      "stateMutability": "view",
      "type": "function"
    },
    {
      "inputs": [
        {
          "internalType": "uint256",
          "name": "index",
          "type": "uint256"
        }
      ],
      "name": "tokenByIndex",
      "outputs": [
        {
          "internalType": "uint256",
          "name": "",
          "type": "uint256"
        }
      ],
      "stateMutability": "view",
      "type": "function"
    },
    {
      "inputs": [
        {
          "internalType": "address",
          "name": "owner",
          "type": "address"
        },
        {
          "internalType": "uint256",
          "name": "index",
          "type": "uint256"
        }
      ],
      "name": "tokenOfOwnerByIndex",
      "outputs": [
        {
          "internalType": "uint256",
          "name": "",
          "type": "uint256"
        }
      ],
      "stateMutability": "view",
      "type": "function"
    },
    {
      "inputs": [
        {
          "internalType": "uint256",
          "name": "tokenId",
          "type": "uint256"
        }
      ],
      "name": "tokenURI",
      "outputs": [
        {
          "internalType": "string",
          "name": "",
          "type": "string"
        }
      ],
      "stateMutability": "view",
      "type": "function"
    },
    {
      "inputs": [],
      "name": "totalSupply",
      "outputs": [
        {
          "internalType": "uint256",
          "name": "",
          "type": "uint256"
        }
      ],
      "stateMutability": "view",
      "type": "function"
    },
    {
      "inputs": [
        {
          "internalType": "address",
          "name": "from",
          "type": "address"
        },
        {
          "internalType": "address",
          "name": "to",
          "type": "address"
        },
        {
          "internalType": "uint256",
          "name": "tokenId",
          "type": "uint256"
        }
      ],
      "name": "transferFrom",
      "outputs": [],
      "stateMutability": "nonpayable",
      "type": "function"
    },
    {
      "inputs": [
        {
          "internalType": "address",
          "name": "newOwner",
          "type": "address"
        }
      ],
      "name": "transferOwnership",
      "outputs": [],
      "stateMutability": "nonpayable",
      "type": "function"
    },
    {
      "inputs": [],
      "name": "unpauseSale",
      "outputs": [],
      "stateMutability": "nonpayable",
      "type": "function"
    },
    {
      "inputs": [
        {
          "internalType": "uint256",
          "name": "amount",
          "type": "uint256"
        }
      ],
      "name": "withdraw",
      "outputs": [],
      "stateMutability": "nonpayable",
      "type": "function"
    }
  ],
  "bytecode": "0x6080604052604051806060016040528060368152602001620044d760369139600b90805190602001906200003592919062000203565b506000600c60006101000a81548160ff02191690831515021790555066038d7ea4c68000600d556002600e553480156200006e57600080fd5b506040518060400160405280600d81526020017f4e4654536b756c6c7332303232000000000000000000000000000000000000008152506040518060400160405280600881526020017f4e465453323032320000000000000000000000000000000000000000000000008152508160009080519060200190620000f392919062000203565b5080600190805190602001906200010c92919062000203565b5050506200012f620001236200013560201b60201c565b6200013d60201b60201c565b62000318565b600033905090565b6000600a60009054906101000a900473ffffffffffffffffffffffffffffffffffffffff16905081600a60006101000a81548173ffffffffffffffffffffffffffffffffffffffff021916908373ffffffffffffffffffffffffffffffffffffffff1602179055508173ffffffffffffffffffffffffffffffffffffffff168173ffffffffffffffffffffffffffffffffffffffff167f8be0079c531659141344cd1fd0a4f28419497f9722a3daafe3b4186f6b6457e060405160405180910390a35050565b8280546200021190620002b3565b90600052602060002090601f01602090048101928262000235576000855562000281565b82601f106200025057805160ff191683800117855562000281565b8280016001018555821562000281579182015b828111156200028057825182559160200191906001019062000263565b5b50905062000290919062000294565b5090565b5b80821115620002af57600081600090555060010162000295565b5090565b60006002820490506001821680620002cc57607f821691505b60208210811415620002e357620002e2620002e9565b5b50919050565b7f4e487b7100000000000000000000000000000000000000000000000000000000600052602260045260246000fd5b6141af80620003286000396000f3fe6080604052600436106101d85760003560e01c806370a0823111610102578063a7a6770611610095578063d0bbb0d711610064578063d0bbb0d714610689578063e985e9c5146106b4578063f2fde38b146106f1578063f4a0a5281461071a576101d8565b8063a7a67706146105e1578063b88d4fde1461060c578063bb33d72914610635578063c87b56dd1461064c576101d8565b80639abc8320116100d15780639abc832014610548578063a0bcfc7f14610573578063a14481941461059c578063a22cb465146105b8576101d8565b806370a082311461049e578063715018a6146104db5780638da5cb5b146104f257806395d89b411461051d576101d8565b80632f745c591161017a57806355367ba91161014957806355367ba9146103f4578063564566a81461040b5780636352211e146104365780636817c76c14610473576101d8565b80632f745c591461032857806342842e0e146103655780634319016b1461038e5780634f6ccce7146103b7576101d8565b8063095ea7b3116101b6578063095ea7b31461028257806318160ddd146102ab57806323b872dd146102d65780632e1a7d4d146102ff576101d8565b806301ffc9a7146101dd57806306fdde031461021a578063081812fc14610245575b600080fd5b3480156101e957600080fd5b5061020460048036038101906101ff9190612e76565b610743565b6040516102119190613982565b60405180910390f35b34801561022657600080fd5b5061022f610755565b60405161023c919061399d565b60405180910390f35b34801561025157600080fd5b5061026c60048036038101906102679190612f09565b6107e7565b604051610279919061391b565b60405180910390f35b34801561028e57600080fd5b506102a960048036038101906102a49190612e3a565b61086c565b005b3480156102b757600080fd5b506102c0610984565b6040516102cd9190613cdf565b60405180910390f35b3480156102e257600080fd5b506102fd60048036038101906102f89190612d34565b610991565b005b34801561030b57600080fd5b5061032660048036038101906103219190612f09565b6109f1565b005b34801561033457600080fd5b5061034f600480360381019061034a9190612e3a565b610abd565b60405161035c9190613cdf565b60405180910390f35b34801561037157600080fd5b5061038c60048036038101906103879190612d34565b610b62565b005b34801561039a57600080fd5b506103b560048036038101906103b09190612f09565b610b82565b005b3480156103c357600080fd5b506103de60048036038101906103d99190612f09565b610c08565b6040516103eb9190613cdf565b60405180910390f35b34801561040057600080fd5b50610409610c9f565b005b34801561041757600080fd5b50610420610d38565b60405161042d9190613982565b60405180910390f35b34801561044257600080fd5b5061045d60048036038101906104589190612f09565b610d4b565b60405161046a919061391b565b60405180910390f35b34801561047f57600080fd5b50610488610dfd565b6040516104959190613cdf565b60405180910390f35b3480156104aa57600080fd5b506104c560048036038101906104c09190612ccf565b610e03565b6040516104d29190613cdf565b60405180910390f35b3480156104e757600080fd5b506104f0610ebb565b005b3480156104fe57600080fd5b50610507610f43565b604051610514919061391b565b60405180910390f35b34801561052957600080fd5b50610532610f6d565b60405161053f919061399d565b60405180910390f35b34801561055457600080fd5b5061055d610fff565b60405161056a919061399d565b60405180910390f35b34801561057f57600080fd5b5061059a60048036038101906105959190612ec8565b61108d565b005b6105b660048036038101906105b19190612e3a565b611123565b005b3480156105c457600080fd5b506105df60048036038101906105da9190612dfe565b61129d565b005b3480156105ed57600080fd5b506105f66112b3565b6040516106039190613cdf565b60405180910390f35b34801561061857600080fd5b50610633600480360381019061062e9190612d83565b6112b9565b005b34801561064157600080fd5b5061064a61131b565b005b34801561065857600080fd5b50610673600480360381019061066e9190612f09565b6113b4565b604051610680919061399d565b60405180910390f35b34801561069557600080fd5b5061069e61145b565b6040516106ab9190613cdf565b60405180910390f35b3480156106c057600080fd5b506106db60048036038101906106d69190612cf8565b611460565b6040516106e89190613982565b60405180910390f35b3480156106fd57600080fd5b5061071860048036038101906107139190612ccf565b6114f4565b005b34801561072657600080fd5b50610741600480360381019061073c9190612f09565b6115ec565b005b600061074e82611672565b9050919050565b60606000805461076490613fa4565b80601f016020809104026020016040519081016040528092919081815260200182805461079090613fa4565b80156107dd5780601f106107b2576101008083540402835291602001916107dd565b820191906000526020600020905b8154815290600101906020018083116107c057829003601f168201915b5050505050905090565b60006107f2826116ec565b610831576040517f08c379a000000000000000000000000000000000000000000000000000000000815260040161082890613bff565b60405180910390fd5b6004600083815260200190815260200160002060009054906101000a900473ffffffffffffffffffffffffffffffffffffffff169050919050565b600061087782610d4b565b90508073ffffffffffffffffffffffffffffffffffffffff168373ffffffffffffffffffffffffffffffffffffffff1614156108e8576040517f08c379a00000000000000000000000000000000000000000000000000000000081526004016108df90613c7f565b60405180910390fd5b8073ffffffffffffffffffffffffffffffffffffffff16610907611758565b73ffffffffffffffffffffffffffffffffffffffff161480610936575061093581610930611758565b611460565b5b610975576040517f08c379a000000000000000000000000000000000000000000000000000000000815260040161096c90613b5f565b60405180910390fd5b61097f8383611760565b505050565b6000600880549050905090565b6109a261099c611758565b82611819565b6109e1576040517f08c379a00000000000000000000000000000000000000000000000000000000081526004016109d890613c9f565b60405180910390fd5b6109ec8383836118f7565b505050565b6109f9611758565b73ffffffffffffffffffffffffffffffffffffffff16610a17610f43565b73ffffffffffffffffffffffffffffffffffffffff1614610a6d576040517f08c379a0000000000000000000000000000000000000000000000000000000008152600401610a6490613c1f565b60405180910390fd5b80471015610ab0576040517f08c379a0000000000000000000000000000000000000000000000000000000008152600401610aa790613bbf565b60405180910390fd5b610aba3382611b53565b50565b6000610ac883610e03565b8210610b09576040517f08c379a0000000000000000000000000000000000000000000000000000000008152600401610b00906139df565b60405180910390fd5b600660008473ffffffffffffffffffffffffffffffffffffffff1673ffffffffffffffffffffffffffffffffffffffff168152602001908152602001600020600083815260200190815260200160002054905092915050565b610b7d838383604051806020016040528060008152506112b9565b505050565b610b8a611758565b73ffffffffffffffffffffffffffffffffffffffff16610ba8610f43565b73ffffffffffffffffffffffffffffffffffffffff1614610bfe576040517f08c379a0000000000000000000000000000000000000000000000000000000008152600401610bf590613c1f565b60405180910390fd5b80600e8190555050565b6000610c12610984565b8210610c53576040517f08c379a0000000000000000000000000000000000000000000000000000000008152600401610c4a90613cbf565b60405180910390fd5b60088281548110610c8d577f4e487b7100000000000000000000000000000000000000000000000000000000600052603260045260246000fd5b90600052602060002001549050919050565b610ca7611758565b73ffffffffffffffffffffffffffffffffffffffff16610cc5610f43565b73ffffffffffffffffffffffffffffffffffffffff1614610d1b576040517f08c379a0000000000000000000000000000000000000000000000000000000008152600401610d1290613c1f565b60405180910390fd5b6000600c60006101000a81548160ff021916908315150217905550565b600c60009054906101000a900460ff1681565b6000806002600084815260200190815260200160002060009054906101000a900473ffffffffffffffffffffffffffffffffffffffff169050600073ffffffffffffffffffffffffffffffffffffffff168173ffffffffffffffffffffffffffffffffffffffff161415610df4576040517f08c379a0000000000000000000000000000000000000000000000000000000008152600401610deb90613b9f565b60405180910390fd5b80915050919050565b600d5481565b60008073ffffffffffffffffffffffffffffffffffffffff168273ffffffffffffffffffffffffffffffffffffffff161415610e74576040517f08c379a0000000000000000000000000000000000000000000000000000000008152600401610e6b90613b7f565b60405180910390fd5b600360008373ffffffffffffffffffffffffffffffffffffffff1673ffffffffffffffffffffffffffffffffffffffff168152602001908152602001600020549050919050565b610ec3611758565b73ffffffffffffffffffffffffffffffffffffffff16610ee1610f43565b73ffffffffffffffffffffffffffffffffffffffff1614610f37576040517f08c379a0000000000000000000000000000000000000000000000000000000008152600401610f2e90613c1f565b60405180910390fd5b610f416000611c47565b565b6000600a60009054906101000a900473ffffffffffffffffffffffffffffffffffffffff16905090565b606060018054610f7c90613fa4565b80601f0160208091040260200160405190810160405280929190818152602001828054610fa890613fa4565b8015610ff55780601f10610fca57610100808354040283529160200191610ff5565b820191906000526020600020905b815481529060010190602001808311610fd857829003601f168201915b5050505050905090565b600b805461100c90613fa4565b80601f016020809104026020016040519081016040528092919081815260200182805461103890613fa4565b80156110855780601f1061105a57610100808354040283529160200191611085565b820191906000526020600020905b81548152906001019060200180831161106857829003601f168201915b505050505081565b611095611758565b73ffffffffffffffffffffffffffffffffffffffff166110b3610f43565b73ffffffffffffffffffffffffffffffffffffffff1614611109576040517f08c379a000000000000000000000000000000000000000000000000000000000815260040161110090613c1f565b60405180910390fd5b80600b908051906020019061111f929190612af3565b5050565b600c60009054906101000a900460ff16611172576040517f08c379a000000000000000000000000000000000000000000000000000000000815260040161116990613abf565b60405180910390fd5b6000811180156111845750600e548111155b6111c3576040517f08c379a00000000000000000000000000000000000000000000000000000000081526004016111ba90613a1f565b60405180910390fd5b60056111cd610984565b826111d89190613dd9565b1115611219576040517f08c379a0000000000000000000000000000000000000000000000000000000008152600401611210906139bf565b60405180910390fd5b80600d546112279190613e60565b341015611269576040517f08c379a000000000000000000000000000000000000000000000000000000000815260040161126090613b3f565b60405180910390fd5b60005b818110156112985761128583611280610984565b611d0d565b808061129090613fd6565b91505061126c565b505050565b6112af6112a8611758565b8383611d2b565b5050565b600e5481565b6112ca6112c4611758565b83611819565b611309576040517f08c379a000000000000000000000000000000000000000000000000000000000815260040161130090613c9f565b60405180910390fd5b61131584848484611e98565b50505050565b611323611758565b73ffffffffffffffffffffffffffffffffffffffff16611341610f43565b73ffffffffffffffffffffffffffffffffffffffff1614611397576040517f08c379a000000000000000000000000000000000000000000000000000000000815260040161138e90613c1f565b60405180910390fd5b6001600c60006101000a81548160ff021916908315150217905550565b60606113bf826116ec565b6113fe576040517f08c379a00000000000000000000000000000000000000000000000000000000081526004016113f590613c5f565b60405180910390fd5b6000611408611ef4565b905060008151116114285760405180602001604052806000815250611453565b8061143284611f86565b6040516020016114439291906138e2565b6040516020818303038152906040525b915050919050565b600581565b6000600560008473ffffffffffffffffffffffffffffffffffffffff1673ffffffffffffffffffffffffffffffffffffffff16815260200190815260200160002060008373ffffffffffffffffffffffffffffffffffffffff1673ffffffffffffffffffffffffffffffffffffffff16815260200190815260200160002060009054906101000a900460ff16905092915050565b6114fc611758565b73ffffffffffffffffffffffffffffffffffffffff1661151a610f43565b73ffffffffffffffffffffffffffffffffffffffff1614611570576040517f08c379a000000000000000000000000000000000000000000000000000000000815260040161156790613c1f565b60405180910390fd5b600073ffffffffffffffffffffffffffffffffffffffff168173ffffffffffffffffffffffffffffffffffffffff1614156115e0576040517f08c379a00000000000000000000000000000000000000000000000000000000081526004016115d790613a3f565b60405180910390fd5b6115e981611c47565b50565b6115f4611758565b73ffffffffffffffffffffffffffffffffffffffff16611612610f43565b73ffffffffffffffffffffffffffffffffffffffff1614611668576040517f08c379a000000000000000000000000000000000000000000000000000000000815260040161165f90613c1f565b60405180910390fd5b80600d8190555050565b60007f780e9d63000000000000000000000000000000000000000000000000000000007bffffffffffffffffffffffffffffffffffffffffffffffffffffffff1916827bffffffffffffffffffffffffffffffffffffffffffffffffffffffff191614806116e557506116e482612133565b5b9050919050565b60008073ffffffffffffffffffffffffffffffffffffffff166002600084815260200190815260200160002060009054906101000a900473ffffffffffffffffffffffffffffffffffffffff1673ffffffffffffffffffffffffffffffffffffffff1614159050919050565b600033905090565b816004600083815260200190815260200160002060006101000a81548173ffffffffffffffffffffffffffffffffffffffff021916908373ffffffffffffffffffffffffffffffffffffffff160217905550808273ffffffffffffffffffffffffffffffffffffffff166117d383610d4b565b73ffffffffffffffffffffffffffffffffffffffff167f8c5be1e5ebec7d5bd14f71427d1e84f3dd0314c0f7b2291e5b200ac8c7c3b92560405160405180910390a45050565b6000611824826116ec565b611863576040517f08c379a000000000000000000000000000000000000000000000000000000000815260040161185a90613b1f565b60405180910390fd5b600061186e83610d4b565b90508073ffffffffffffffffffffffffffffffffffffffff168473ffffffffffffffffffffffffffffffffffffffff1614806118dd57508373ffffffffffffffffffffffffffffffffffffffff166118c5846107e7565b73ffffffffffffffffffffffffffffffffffffffff16145b806118ee57506118ed8185611460565b5b91505092915050565b8273ffffffffffffffffffffffffffffffffffffffff1661191782610d4b565b73ffffffffffffffffffffffffffffffffffffffff161461196d576040517f08c379a000000000000000000000000000000000000000000000000000000000815260040161196490613c3f565b60405180910390fd5b600073ffffffffffffffffffffffffffffffffffffffff168273ffffffffffffffffffffffffffffffffffffffff1614156119dd576040517f08c379a00000000000000000000000000000000000000000000000000000000081526004016119d490613a7f565b60405180910390fd5b6119e8838383612215565b6119f3600082611760565b6001600360008573ffffffffffffffffffffffffffffffffffffffff1673ffffffffffffffffffffffffffffffffffffffff1681526020019081526020016000206000828254611a439190613eba565b925050819055506001600360008473ffffffffffffffffffffffffffffffffffffffff1673ffffffffffffffffffffffffffffffffffffffff1681526020019081526020016000206000828254611a9a9190613dd9565b92505081905550816002600083815260200190815260200160002060006101000a81548173ffffffffffffffffffffffffffffffffffffffff021916908373ffffffffffffffffffffffffffffffffffffffff160217905550808273ffffffffffffffffffffffffffffffffffffffff168473ffffffffffffffffffffffffffffffffffffffff167fddf252ad1be2c89b69c2b068fc378daa952ba7f163c4a11628f55a4df523b3ef60405160405180910390a4505050565b80471015611b96576040517f08c379a0000000000000000000000000000000000000000000000000000000008152600401611b8d90613aff565b60405180910390fd5b60008273ffffffffffffffffffffffffffffffffffffffff1682604051611bbc90613906565b60006040518083038185875af1925050503d8060008114611bf9576040519150601f19603f3d011682016040523d82523d6000602084013e611bfe565b606091505b5050905080611c42576040517f08c379a0000000000000000000000000000000000000000000000000000000008152600401611c3990613adf565b60405180910390fd5b505050565b6000600a60009054906101000a900473ffffffffffffffffffffffffffffffffffffffff16905081600a60006101000a81548173ffffffffffffffffffffffffffffffffffffffff021916908373ffffffffffffffffffffffffffffffffffffffff1602179055508173ffffffffffffffffffffffffffffffffffffffff168173ffffffffffffffffffffffffffffffffffffffff167f8be0079c531659141344cd1fd0a4f28419497f9722a3daafe3b4186f6b6457e060405160405180910390a35050565b611d27828260405180602001604052806000815250612225565b5050565b8173ffffffffffffffffffffffffffffffffffffffff168373ffffffffffffffffffffffffffffffffffffffff161415611d9a576040517f08c379a0000000000000000000000000000000000000000000000000000000008152600401611d9190613a9f565b60405180910390fd5b80600560008573ffffffffffffffffffffffffffffffffffffffff1673ffffffffffffffffffffffffffffffffffffffff16815260200190815260200160002060008473ffffffffffffffffffffffffffffffffffffffff1673ffffffffffffffffffffffffffffffffffffffff16815260200190815260200160002060006101000a81548160ff0219169083151502179055508173ffffffffffffffffffffffffffffffffffffffff168373ffffffffffffffffffffffffffffffffffffffff167f17307eab39ab6107e8899845ad3d59bd9653f200f220920489ca2b5937696c3183604051611e8b9190613982565b60405180910390a3505050565b611ea38484846118f7565b611eaf84848484612280565b611eee576040517f08c379a0000000000000000000000000000000000000000000000000000000008152600401611ee5906139ff565b60405180910390fd5b50505050565b6060600b8054611f0390613fa4565b80601f0160208091040260200160405190810160405280929190818152602001828054611f2f90613fa4565b8015611f7c5780601f10611f5157610100808354040283529160200191611f7c565b820191906000526020600020905b815481529060010190602001808311611f5f57829003601f168201915b5050505050905090565b60606000821415611fce576040518060400160405280600181526020017f3000000000000000000000000000000000000000000000000000000000000000815250905061212e565b600082905060005b60008214612000578080611fe990613fd6565b915050600a82611ff99190613e2f565b9150611fd6565b60008167ffffffffffffffff811115612042577f4e487b7100000000000000000000000000000000000000000000000000000000600052604160045260246000fd5b6040519080825280601f01601f1916602001820160405280156120745781602001600182028036833780820191505090505b5090505b600085146121275760018261208d9190613eba565b9150600a8561209c919061401f565b60306120a89190613dd9565b60f81b8183815181106120e4577f4e487b7100000000000000000000000000000000000000000000000000000000600052603260045260246000fd5b60200101907effffffffffffffffffffffffffffffffffffffffffffffffffffffffffffff1916908160001a905350600a856121209190613e2f565b9450612078565b8093505050505b919050565b60007f80ac58cd000000000000000000000000000000000000000000000000000000007bffffffffffffffffffffffffffffffffffffffffffffffffffffffff1916827bffffffffffffffffffffffffffffffffffffffffffffffffffffffff191614806121fe57507f5b5e139f000000000000000000000000000000000000000000000000000000007bffffffffffffffffffffffffffffffffffffffffffffffffffffffff1916827bffffffffffffffffffffffffffffffffffffffffffffffffffffffff1916145b8061220e575061220d82612417565b5b9050919050565b612220838383612481565b505050565b61222f8383612595565b61223c6000848484612280565b61227b576040517f08c379a0000000000000000000000000000000000000000000000000000000008152600401612272906139ff565b60405180910390fd5b505050565b60006122a18473ffffffffffffffffffffffffffffffffffffffff16612763565b1561240a578373ffffffffffffffffffffffffffffffffffffffff1663150b7a026122ca611758565b8786866040518563ffffffff1660e01b81526004016122ec9493929190613936565b602060405180830381600087803b15801561230657600080fd5b505af192505050801561233757506040513d601f19601f820116820180604052508101906123349190612e9f565b60015b6123ba573d8060008114612367576040519150601f19603f3d011682016040523d82523d6000602084013e61236c565b606091505b506000815114156123b2576040517f08c379a00000000000000000000000000000000000000000000000000000000081526004016123a9906139ff565b60405180910390fd5b805181602001fd5b63150b7a0260e01b7bffffffffffffffffffffffffffffffffffffffffffffffffffffffff1916817bffffffffffffffffffffffffffffffffffffffffffffffffffffffff19161491505061240f565b600190505b949350505050565b60007f01ffc9a7000000000000000000000000000000000000000000000000000000007bffffffffffffffffffffffffffffffffffffffffffffffffffffffff1916827bffffffffffffffffffffffffffffffffffffffffffffffffffffffff1916149050919050565b61248c838383612776565b600073ffffffffffffffffffffffffffffffffffffffff168373ffffffffffffffffffffffffffffffffffffffff1614156124cf576124ca8161277b565b61250e565b8173ffffffffffffffffffffffffffffffffffffffff168373ffffffffffffffffffffffffffffffffffffffff161461250d5761250c83826127c4565b5b5b600073ffffffffffffffffffffffffffffffffffffffff168273ffffffffffffffffffffffffffffffffffffffff1614156125515761254c81612931565b612590565b8273ffffffffffffffffffffffffffffffffffffffff168273ffffffffffffffffffffffffffffffffffffffff161461258f5761258e8282612a74565b5b5b505050565b600073ffffffffffffffffffffffffffffffffffffffff168273ffffffffffffffffffffffffffffffffffffffff161415612605576040517f08c379a00000000000000000000000000000000000000000000000000000000081526004016125fc90613bdf565b60405180910390fd5b61260e816116ec565b1561264e576040517f08c379a000000000000000000000000000000000000000000000000000000000815260040161264590613a5f565b60405180910390fd5b61265a60008383612215565b6001600360008473ffffffffffffffffffffffffffffffffffffffff1673ffffffffffffffffffffffffffffffffffffffff16815260200190815260200160002060008282546126aa9190613dd9565b92505081905550816002600083815260200190815260200160002060006101000a81548173ffffffffffffffffffffffffffffffffffffffff021916908373ffffffffffffffffffffffffffffffffffffffff160217905550808273ffffffffffffffffffffffffffffffffffffffff16600073ffffffffffffffffffffffffffffffffffffffff167fddf252ad1be2c89b69c2b068fc378daa952ba7f163c4a11628f55a4df523b3ef60405160405180910390a45050565b600080823b905060008111915050919050565b505050565b6008805490506009600083815260200190815260200160002081905550600881908060018154018082558091505060019003906000526020600020016000909190919091505550565b600060016127d184610e03565b6127db9190613eba565b90506000600760008481526020019081526020016000205490508181146128c0576000600660008673ffffffffffffffffffffffffffffffffffffffff1673ffffffffffffffffffffffffffffffffffffffff168152602001908152602001600020600084815260200190815260200160002054905080600660008773ffffffffffffffffffffffffffffffffffffffff1673ffffffffffffffffffffffffffffffffffffffff168152602001908152602001600020600084815260200190815260200160002081905550816007600083815260200190815260200160002081905550505b6007600084815260200190815260200160002060009055600660008573ffffffffffffffffffffffffffffffffffffffff1673ffffffffffffffffffffffffffffffffffffffff16815260200190815260200160002060008381526020019081526020016000206000905550505050565b600060016008805490506129459190613eba565b905060006009600084815260200190815260200160002054905060006008838154811061299b577f4e487b7100000000000000000000000000000000000000000000000000000000600052603260045260246000fd5b9060005260206000200154905080600883815481106129e3577f4e487b7100000000000000000000000000000000000000000000000000000000600052603260045260246000fd5b906000526020600020018190555081600960008381526020019081526020016000208190555060096000858152602001908152602001600020600090556008805480612a58577f4e487b7100000000000000000000000000000000000000000000000000000000600052603160045260246000fd5b6001900381819060005260206000200160009055905550505050565b6000612a7f83610e03565b905081600660008573ffffffffffffffffffffffffffffffffffffffff1673ffffffffffffffffffffffffffffffffffffffff168152602001908152602001600020600083815260200190815260200160002081905550806007600084815260200190815260200160002081905550505050565b828054612aff90613fa4565b90600052602060002090601f016020900481019282612b215760008555612b68565b82601f10612b3a57805160ff1916838001178555612b68565b82800160010185558215612b68579182015b82811115612b67578251825591602001919060010190612b4c565b5b509050612b759190612b79565b5090565b5b80821115612b92576000816000905550600101612b7a565b5090565b6000612ba9612ba484613d2b565b613cfa565b905082815260208101848484011115612bc157600080fd5b612bcc848285613f62565b509392505050565b6000612be7612be284613d5b565b613cfa565b905082815260208101848484011115612bff57600080fd5b612c0a848285613f62565b509392505050565b600081359050612c218161411d565b92915050565b600081359050612c3681614134565b92915050565b600081359050612c4b8161414b565b92915050565b600081519050612c608161414b565b92915050565b600082601f830112612c7757600080fd5b8135612c87848260208601612b96565b91505092915050565b600082601f830112612ca157600080fd5b8135612cb1848260208601612bd4565b91505092915050565b600081359050612cc981614162565b92915050565b600060208284031215612ce157600080fd5b6000612cef84828501612c12565b91505092915050565b60008060408385031215612d0b57600080fd5b6000612d1985828601612c12565b9250506020612d2a85828601612c12565b9150509250929050565b600080600060608486031215612d4957600080fd5b6000612d5786828701612c12565b9350506020612d6886828701612c12565b9250506040612d7986828701612cba565b9150509250925092565b60008060008060808587031215612d9957600080fd5b6000612da787828801612c12565b9450506020612db887828801612c12565b9350506040612dc987828801612cba565b925050606085013567ffffffffffffffff811115612de657600080fd5b612df287828801612c66565b91505092959194509250565b60008060408385031215612e1157600080fd5b6000612e1f85828601612c12565b9250506020612e3085828601612c27565b9150509250929050565b60008060408385031215612e4d57600080fd5b6000612e5b85828601612c12565b9250506020612e6c85828601612cba565b9150509250929050565b600060208284031215612e8857600080fd5b6000612e9684828501612c3c565b91505092915050565b600060208284031215612eb157600080fd5b6000612ebf84828501612c51565b91505092915050565b600060208284031215612eda57600080fd5b600082013567ffffffffffffffff811115612ef457600080fd5b612f0084828501612c90565b91505092915050565b600060208284031215612f1b57600080fd5b6000612f2984828501612cba565b91505092915050565b612f3b81613eee565b82525050565b612f4a81613f00565b82525050565b6000612f5b82613d8b565b612f658185613da1565b9350612f75818560208601613f71565b612f7e8161410c565b840191505092915050565b6000612f9482613d96565b612f9e8185613dbd565b9350612fae818560208601613f71565b612fb78161410c565b840191505092915050565b6000612fcd82613d96565b612fd78185613dce565b9350612fe7818560208601613f71565b80840191505092915050565b6000613000601e83613dbd565b91507f4e6f7420656e6f7567687420746f6b656e73206c65667420746f2062757900006000830152602082019050919050565b6000613040602b83613dbd565b91507f455243373231456e756d657261626c653a206f776e657220696e646578206f7560008301527f74206f6620626f756e64730000000000000000000000000000000000000000006020830152604082019050919050565b60006130a6603283613dbd565b91507f4552433732313a207472616e7366657220746f206e6f6e20455243373231526560008301527f63656976657220696d706c656d656e74657200000000000000000000000000006020830152604082019050919050565b600061310c603383613dbd565b91507f416d6f756e74206f6620746f6b656e732065786365656473206d617820746f6b60008301527f656e7320706572207472616e73616374696f6e000000000000000000000000006020830152604082019050919050565b6000613172602683613dbd565b91507f4f776e61626c653a206e6577206f776e657220697320746865207a65726f206160008301527f64647265737300000000000000000000000000000000000000000000000000006020830152604082019050919050565b60006131d8601c83613dbd565b91507f4552433732313a20746f6b656e20616c7265616479206d696e746564000000006000830152602082019050919050565b6000613218602483613dbd565b91507f4552433732313a207472616e7366657220746f20746865207a65726f2061646460008301527f72657373000000000000000000000000000000000000000000000000000000006020830152604082019050919050565b600061327e601983613dbd565b91507f4552433732313a20617070726f766520746f2063616c6c6572000000000000006000830152602082019050919050565b60006132be601283613dbd565b91507f53616c65206973206e6f742061637469766500000000000000000000000000006000830152602082019050919050565b60006132fe603a83613dbd565b91507f416464726573733a20756e61626c6520746f2073656e642076616c75652c207260008301527f6563697069656e74206d617920686176652072657665727465640000000000006020830152604082019050919050565b6000613364601d83613dbd565b91507f416464726573733a20696e73756666696369656e742062616c616e63650000006000830152602082019050919050565b60006133a4602c83613dbd565b91507f4552433732313a206f70657261746f7220717565727920666f72206e6f6e657860008301527f697374656e7420746f6b656e00000000000000000000000000000000000000006020830152604082019050919050565b600061340a602283613dbd565b91507f416d6f756e74206f662065746865722073656e74206973206e6f7420656e6f7560008301527f67680000000000000000000000000000000000000000000000000000000000006020830152604082019050919050565b6000613470603883613dbd565b91507f4552433732313a20617070726f76652063616c6c6572206973206e6f74206f7760008301527f6e6572206e6f7220617070726f76656420666f7220616c6c00000000000000006020830152604082019050919050565b60006134d6602a83613dbd565b91507f4552433732313a2062616c616e636520717565727920666f7220746865207a6560008301527f726f2061646472657373000000000000000000000000000000000000000000006020830152604082019050919050565b600061353c602983613dbd565b91507f4552433732313a206f776e657220717565727920666f72206e6f6e657869737460008301527f656e7420746f6b656e00000000000000000000000000000000000000000000006020830152604082019050919050565b60006135a2601d83613dbd565b91507f4e6f7420656e6f7567687420657468657220746f2077697468647261770000006000830152602082019050919050565b60006135e2602083613dbd565b91507f4552433732313a206d696e7420746f20746865207a65726f20616464726573736000830152602082019050919050565b6000613622602c83613dbd565b91507f4552433732313a20617070726f76656420717565727920666f72206e6f6e657860008301527f697374656e7420746f6b656e00000000000000000000000000000000000000006020830152604082019050919050565b6000613688602083613dbd565b91507f4f776e61626c653a2063616c6c6572206973206e6f7420746865206f776e65726000830152602082019050919050565b60006136c8602983613dbd565b91507f4552433732313a207472616e73666572206f6620746f6b656e2074686174206960008301527f73206e6f74206f776e00000000000000000000000000000000000000000000006020830152604082019050919050565b600061372e602f83613dbd565b91507f4552433732314d657461646174613a2055524920717565727920666f72206e6f60008301527f6e6578697374656e7420746f6b656e00000000000000000000000000000000006020830152604082019050919050565b6000613794602183613dbd565b91507f4552433732313a20617070726f76616c20746f2063757272656e74206f776e6560008301527f72000000000000000000000000000000000000000000000000000000000000006020830152604082019050919050565b60006137fa600083613db2565b9150600082019050919050565b6000613814603183613dbd565b91507f4552433732313a207472616e736665722063616c6c6572206973206e6f74206f60008301527f776e6572206e6f7220617070726f7665640000000000000000000000000000006020830152604082019050919050565b600061387a602c83613dbd565b91507f455243373231456e756d657261626c653a20676c6f62616c20696e646578206f60008301527f7574206f6620626f756e647300000000000000000000000000000000000000006020830152604082019050919050565b6138dc81613f58565b82525050565b60006138ee8285612fc2565b91506138fa8284612fc2565b91508190509392505050565b6000613911826137ed565b9150819050919050565b60006020820190506139306000830184612f32565b92915050565b600060808201905061394b6000830187612f32565b6139586020830186612f32565b61396560408301856138d3565b81810360608301526139778184612f50565b905095945050505050565b60006020820190506139976000830184612f41565b92915050565b600060208201905081810360008301526139b78184612f89565b905092915050565b600060208201905081810360008301526139d881612ff3565b9050919050565b600060208201905081810360008301526139f881613033565b9050919050565b60006020820190508181036000830152613a1881613099565b9050919050565b60006020820190508181036000830152613a38816130ff565b9050919050565b60006020820190508181036000830152613a5881613165565b9050919050565b60006020820190508181036000830152613a78816131cb565b9050919050565b60006020820190508181036000830152613a988161320b565b9050919050565b60006020820190508181036000830152613ab881613271565b9050919050565b60006020820190508181036000830152613ad8816132b1565b9050919050565b60006020820190508181036000830152613af8816132f1565b9050919050565b60006020820190508181036000830152613b1881613357565b9050919050565b60006020820190508181036000830152613b3881613397565b9050919050565b60006020820190508181036000830152613b58816133fd565b9050919050565b60006020820190508181036000830152613b7881613463565b9050919050565b60006020820190508181036000830152613b98816134c9565b9050919050565b60006020820190508181036000830152613bb88161352f565b9050919050565b60006020820190508181036000830152613bd881613595565b9050919050565b60006020820190508181036000830152613bf8816135d5565b9050919050565b60006020820190508181036000830152613c1881613615565b9050919050565b60006020820190508181036000830152613c388161367b565b9050919050565b60006020820190508181036000830152613c58816136bb565b9050919050565b60006020820190508181036000830152613c7881613721565b9050919050565b60006020820190508181036000830152613c9881613787565b9050919050565b60006020820190508181036000830152613cb881613807565b9050919050565b60006020820190508181036000830152613cd88161386d565b9050919050565b6000602082019050613cf460008301846138d3565b92915050565b6000604051905081810181811067ffffffffffffffff82111715613d2157613d206140dd565b5b8060405250919050565b600067ffffffffffffffff821115613d4657613d456140dd565b5b601f19601f8301169050602081019050919050565b600067ffffffffffffffff821115613d7657613d756140dd565b5b601f19601f8301169050602081019050919050565b600081519050919050565b600081519050919050565b600082825260208201905092915050565b600081905092915050565b600082825260208201905092915050565b600081905092915050565b6000613de482613f58565b9150613def83613f58565b9250827fffffffffffffffffffffffffffffffffffffffffffffffffffffffffffffffff03821115613e2457613e23614050565b5b828201905092915050565b6000613e3a82613f58565b9150613e4583613f58565b925082613e5557613e5461407f565b5b828204905092915050565b6000613e6b82613f58565b9150613e7683613f58565b9250817fffffffffffffffffffffffffffffffffffffffffffffffffffffffffffffffff0483118215151615613eaf57613eae614050565b5b828202905092915050565b6000613ec582613f58565b9150613ed083613f58565b925082821015613ee357613ee2614050565b5b828203905092915050565b6000613ef982613f38565b9050919050565b60008115159050919050565b60007fffffffff0000000000000000000000000000000000000000000000000000000082169050919050565b600073ffffffffffffffffffffffffffffffffffffffff82169050919050565b6000819050919050565b82818337600083830152505050565b60005b83811015613f8f578082015181840152602081019050613f74565b83811115613f9e576000848401525b50505050565b60006002820490506001821680613fbc57607f821691505b60208210811415613fd057613fcf6140ae565b5b50919050565b6000613fe182613f58565b91507fffffffffffffffffffffffffffffffffffffffffffffffffffffffffffffffff82141561401457614013614050565b5b600182019050919050565b600061402a82613f58565b915061403583613f58565b9250826140455761404461407f565b5b828206905092915050565b7f4e487b7100000000000000000000000000000000000000000000000000000000600052601160045260246000fd5b7f4e487b7100000000000000000000000000000000000000000000000000000000600052601260045260246000fd5b7f4e487b7100000000000000000000000000000000000000000000000000000000600052602260045260246000fd5b7f4e487b7100000000000000000000000000000000000000000000000000000000600052604160045260246000fd5b6000601f19601f8301169050919050565b61412681613eee565b811461413157600080fd5b50565b61413d81613f00565b811461414857600080fd5b50565b61415481613f0c565b811461415f57600080fd5b50565b61416b81613f58565b811461417657600080fd5b5056fea2646970667358221220dbe8525277191badf00aaa946d8204f7c77c1942ef0353ca592dc08c4164aaab64736f6c63430008000033697066733a2f2f516d57796759344c3558344a4d38356b736e52387347784143665470616163537968326e574c35697a51334d694b2f",
  "linkReferences": {},
  "deployedLinkReferences": {}
}