{
  "_format": "hh-sol-artifact-1",
  "contractName": "NFTSkulls2022",
  "sourceName": "contracts/NFTSkulls2022.sol",
  "abi": [
    {
      "inputs": [],
      "stateMutability": "nonpayable",
      "type": "constructor"
    },
    {
      "anonymous": false,
      "inputs": [
        {
          "indexed": true,
          "internalType": "address",
          "name": "owner",
          "type": "address"
        },
        {
          "indexed": true,
          "internalType": "address",
          "name": "approved",
          "type": "address"
        },
        {
          "indexed": true,
          "internalType": "uint256",
          "name": "tokenId",
          "type": "uint256"
        }
      ],
      "name": "Approval",
      "type": "event"
    },
    {
      "anonymous": false,
      "inputs": [
        {
          "indexed": true,
          "internalType": "address",
          "name": "owner",
          "type": "address"
        },
        {
          "indexed": true,
          "internalType": "address",
          "name": "operator",
          "type": "address"
        },
        {
          "indexed": false,
          "internalType": "bool",
          "name": "approved",
          "type": "bool"
        }
      ],
      "name": "ApprovalForAll",
      "type": "event"
    },
    {
      "anonymous": false,
      "inputs": [
        {
          "indexed": true,
          "internalType": "address",
          "name": "previousOwner",
          "type": "address"
        },
        {
          "indexed": true,
          "internalType": "address",
          "name": "newOwner",
          "type": "address"
        }
      ],
      "name": "OwnershipTransferred",
      "type": "event"
    },
    {
      "anonymous": false,
      "inputs": [
        {
          "indexed": true,
          "internalType": "address",
          "name": "from",
          "type": "address"
        },
        {
          "indexed": true,
          "internalType": "address",
          "name": "to",
          "type": "address"
        },
        {
          "indexed": true,
          "internalType": "uint256",
          "name": "tokenId",
          "type": "uint256"
        }
      ],
      "name": "Transfer",
      "type": "event"
    },
    {
      "inputs": [],
      "name": "MAX_TOKEN_COUNT",
      "outputs": [
        {
          "internalType": "uint256",
          "name": "",
          "type": "uint256"
        }
      ],
      "stateMutability": "view",
      "type": "function"
    },
    {
      "inputs": [],
      "name": "MAX_TOKEN_COUNT_PER_TX",
      "outputs": [
        {
          "internalType": "uint256",
          "name": "",
          "type": "uint256"
        }
      ],
      "stateMutability": "view",
      "type": "function"
    },
    {
      "inputs": [],
      "name": "MINT_PRICE",
      "outputs": [
        {
          "internalType": "uint256",
          "name": "",
          "type": "uint256"
        }
      ],
      "stateMutability": "view",
      "type": "function"
    },
    {
      "inputs": [
        {
          "internalType": "address",
          "name": "to",
          "type": "address"
        },
        {
          "internalType": "uint256",
          "name": "tokenId",
          "type": "uint256"
        }
      ],
      "name": "approve",
      "outputs": [],
      "stateMutability": "nonpayable",
      "type": "function"
    },
    {
      "inputs": [
        {
          "internalType": "address",
          "name": "owner",
          "type": "address"
        }
      ],
      "name": "balanceOf",
      "outputs": [
        {
          "internalType": "uint256",
          "name": "",
          "type": "uint256"
        }
      ],
      "stateMutability": "view",
      "type": "function"
    },
    {
      "inputs": [],
      "name": "contractURI",
      "outputs": [
        {
          "internalType": "string",
          "name": "",
          "type": "string"
        }
      ],
      "stateMutability": "view",
      "type": "function"
    },
    {
      "inputs": [
        {
          "internalType": "address",
          "name": "",
          "type": "address"
        }
      ],
      "name": "freeMintingAddresses",
      "outputs": [
        {
          "internalType": "uint256",
          "name": "",
          "type": "uint256"
        }
      ],
      "stateMutability": "view",
      "type": "function"
    },
    {
      "inputs": [
        {
          "internalType": "uint256",
          "name": "tokenId",
          "type": "uint256"
        }
      ],
      "name": "getApproved",
      "outputs": [
        {
          "internalType": "address",
          "name": "",
          "type": "address"
        }
      ],
      "stateMutability": "view",
      "type": "function"
    },
    {
      "inputs": [
        {
          "internalType": "address",
          "name": "owner",
          "type": "address"
        },
        {
          "internalType": "address",
          "name": "operator",
          "type": "address"
        }
      ],
      "name": "isApprovedForAll",
      "outputs": [
        {
          "internalType": "bool",
          "name": "",
          "type": "bool"
        }
      ],
      "stateMutability": "view",
      "type": "function"
    },
    {
      "inputs": [],
      "name": "isSaleActive",
      "outputs": [
        {
          "internalType": "bool",
          "name": "",
          "type": "bool"
        }
      ],
      "stateMutability": "view",
      "type": "function"
    },
    {
      "inputs": [
        {
          "internalType": "address",
          "name": "to",
          "type": "address"
        },
        {
          "internalType": "uint256",
          "name": "amount",
          "type": "uint256"
        }
      ],
      "name": "mint",
      "outputs": [],
      "stateMutability": "payable",
      "type": "function"
    },
    {
      "inputs": [
        {
          "internalType": "uint256",
          "name": "amount",
          "type": "uint256"
        }
      ],
      "name": "mintFree",
      "outputs": [],
      "stateMutability": "nonpayable",
      "type": "function"
    },
    {
      "inputs": [],
      "name": "name",
      "outputs": [
        {
          "internalType": "string",
          "name": "",
          "type": "string"
        }
      ],
      "stateMutability": "view",
      "type": "function"
    },
    {
      "inputs": [],
      "name": "owner",
      "outputs": [
        {
          "internalType": "address",
          "name": "",
          "type": "address"
        }
      ],
      "stateMutability": "view",
      "type": "function"
    },
    {
      "inputs": [
        {
          "internalType": "uint256",
          "name": "tokenId",
          "type": "uint256"
        }
      ],
      "name": "ownerOf",
      "outputs": [
        {
          "internalType": "address",
          "name": "",
          "type": "address"
        }
      ],
      "stateMutability": "view",
      "type": "function"
    },
    {
      "inputs": [],
      "name": "pauseSale",
      "outputs": [],
      "stateMutability": "nonpayable",
      "type": "function"
    },
    {
      "inputs": [],
      "name": "renounceOwnership",
      "outputs": [],
      "stateMutability": "nonpayable",
      "type": "function"
    },
    {
      "inputs": [
        {
          "internalType": "address",
          "name": "to",
          "type": "address"
        },
        {
          "internalType": "uint256",
          "name": "amount",
          "type": "uint256"
        }
      ],
      "name": "reserveTokens",
      "outputs": [],
      "stateMutability": "nonpayable",
      "type": "function"
    },
    {
      "inputs": [
        {
          "internalType": "address",
          "name": "from",
          "type": "address"
        },
        {
          "internalType": "address",
          "name": "to",
          "type": "address"
        },
        {
          "internalType": "uint256",
          "name": "tokenId",
          "type": "uint256"
        }
      ],
      "name": "safeTransferFrom",
      "outputs": [],
      "stateMutability": "nonpayable",
      "type": "function"
    },
    {
      "inputs": [
        {
          "internalType": "address",
          "name": "from",
          "type": "address"
        },
        {
          "internalType": "address",
          "name": "to",
          "type": "address"
        },
        {
          "internalType": "uint256",
          "name": "tokenId",
          "type": "uint256"
        },
        {
          "internalType": "bytes",
          "name": "_data",
          "type": "bytes"
        }
      ],
      "name": "safeTransferFrom",
      "outputs": [],
      "stateMutability": "nonpayable",
      "type": "function"
    },
    {
      "inputs": [
        {
          "internalType": "address[]",
          "name": "addresses",
          "type": "address[]"
        },
        {
          "internalType": "uint256[]",
          "name": "freeMintsCount",
          "type": "uint256[]"
        }
      ],
      "name": "seedFreeMintingAddresses",
      "outputs": [],
      "stateMutability": "nonpayable",
      "type": "function"
    },
    {
      "inputs": [
        {
          "internalType": "address",
          "name": "operator",
          "type": "address"
        },
        {
          "internalType": "bool",
          "name": "approved",
          "type": "bool"
        }
      ],
      "name": "setApprovalForAll",
      "outputs": [],
      "stateMutability": "nonpayable",
      "type": "function"
    },
    {
      "inputs": [
        {
          "internalType": "string",
          "name": "newBaseUri",
          "type": "string"
        }
      ],
      "name": "setBaseUri",
      "outputs": [],
      "stateMutability": "nonpayable",
      "type": "function"
    },
    {
      "inputs": [
        {
          "internalType": "string",
          "name": "newContractUri",
          "type": "string"
        }
      ],
      "name": "setContractUri",
      "outputs": [],
      "stateMutability": "nonpayable",
      "type": "function"
    },
    {
      "inputs": [
        {
          "internalType": "bytes4",
          "name": "interfaceId",
          "type": "bytes4"
        }
      ],
      "name": "supportsInterface",
      "outputs": [
        {
          "internalType": "bool",
          "name": "",
          "type": "bool"
        }
      ],
      "stateMutability": "view",
      "type": "function"
    },
    {
      "inputs": [],
      "name": "symbol",
      "outputs": [
        {
          "internalType": "string",
          "name": "",
          "type": "string"
        }
      ],
      "stateMutability": "view",
      "type": "function"
    },
    {
      "inputs": [
        {
          "internalType": "uint256",
          "name": "tokenId",
          "type": "uint256"
        }
      ],
      "name": "tokenURI",
      "outputs": [
        {
          "internalType": "string",
          "name": "",
          "type": "string"
        }
      ],
      "stateMutability": "view",
      "type": "function"
    },
    {
      "inputs": [
        {
          "internalType": "address",
          "name": "from",
          "type": "address"
        },
        {
          "internalType": "address",
          "name": "to",
          "type": "address"
        },
        {
          "internalType": "uint256",
          "name": "tokenId",
          "type": "uint256"
        }
      ],
      "name": "transferFrom",
      "outputs": [],
      "stateMutability": "nonpayable",
      "type": "function"
    },
    {
      "inputs": [
        {
          "internalType": "address",
          "name": "newOwner",
          "type": "address"
        }
      ],
      "name": "transferOwnership",
      "outputs": [],
      "stateMutability": "nonpayable",
      "type": "function"
    },
    {
      "inputs": [],
      "name": "unpauseSale",
      "outputs": [],
      "stateMutability": "nonpayable",
      "type": "function"
    },
    {
      "inputs": [
        {
          "internalType": "address payable",
          "name": "to",
          "type": "address"
        },
        {
          "internalType": "uint256",
          "name": "amount",
          "type": "uint256"
        }
      ],
      "name": "withdraw",
      "outputs": [],
      "stateMutability": "nonpayable",
      "type": "function"
    }
  ],
  "bytecode": "0x608060405260405180606001604052806036815260200162004666603691396008908051906020019062000035929190620001f3565b506000600a60006101000a81548160ff0219169083151502179055503480156200005e57600080fd5b506040518060400160405280600d81526020017f4e4654536b756c6c7332303232000000000000000000000000000000000000008152506040518060400160405280600881526020017f4e465453323032320000000000000000000000000000000000000000000000008152508160009080519060200190620000e3929190620001f3565b508060019080519060200190620000fc929190620001f3565b5050506200011f620001136200012560201b60201c565b6200012d60201b60201c565b62000308565b600033905090565b6000600660009054906101000a900473ffffffffffffffffffffffffffffffffffffffff16905081600660006101000a81548173ffffffffffffffffffffffffffffffffffffffff021916908373ffffffffffffffffffffffffffffffffffffffff1602179055508173ffffffffffffffffffffffffffffffffffffffff168173ffffffffffffffffffffffffffffffffffffffff167f8be0079c531659141344cd1fd0a4f28419497f9722a3daafe3b4186f6b6457e060405160405180910390a35050565b8280546200020190620002a3565b90600052602060002090601f01602090048101928262000225576000855562000271565b82601f106200024057805160ff191683800117855562000271565b8280016001018555821562000271579182015b828111156200027057825182559160200191906001019062000253565b5b50905062000280919062000284565b5090565b5b808211156200029f57600081600090555060010162000285565b5090565b60006002820490506001821680620002bc57607f821691505b60208210811415620002d357620002d2620002d9565b5b50919050565b7f4e487b7100000000000000000000000000000000000000000000000000000000600052602260045260246000fd5b61434e80620003186000396000f3fe6080604052600436106101d85760003560e01c8063a0bcfc7f11610102578063ccb4807b11610095578063e8a3d48511610064578063e8a3d48514610673578063e985e9c51461069e578063f2fde38b146106db578063f3fef3a314610704576101d8565b8063ccb4807b146105b9578063d0bbb0d7146105e2578063d5af001c1461060d578063e394adc11461064a576101d8565b8063bb33d729116100d1578063bb33d7291461050f578063c002d23d14610526578063c87b56dd14610551578063c99ecfe11461058e576101d8565b8063a0bcfc7f1461046b578063a22cb46514610494578063a4146733146104bd578063b88d4fde146104e6576101d8565b806355367ba91161017a578063715018a611610149578063715018a6146103d557806378cf19e9146103ec5780638da5cb5b1461041557806395d89b4114610440576101d8565b806355367ba914610319578063564566a8146103305780636352211e1461035b57806370a0823114610398576101d8565b8063095ea7b3116101b6578063095ea7b31461028257806323b872dd146102ab57806340c10f19146102d457806342842e0e146102f0576101d8565b806301ffc9a7146101dd57806306fdde031461021a578063081812fc14610245575b600080fd5b3480156101e957600080fd5b5061020460048036038101906101ff9190612f13565b61072d565b6040516102119190613a6b565b60405180910390f35b34801561022657600080fd5b5061022f61080f565b60405161023c9190613a86565b60405180910390f35b34801561025157600080fd5b5061026c60048036038101906102679190612fa6565b6108a1565b6040516102799190613a04565b60405180910390f35b34801561028e57600080fd5b506102a960048036038101906102a49190612e6b565b610926565b005b3480156102b757600080fd5b506102d260048036038101906102cd9190612d65565b610a3e565b005b6102ee60048036038101906102e99190612e6b565b610a9e565b005b3480156102fc57600080fd5b5061031760048036038101906103129190612d65565b610cb3565b005b34801561032557600080fd5b5061032e610cd3565b005b34801561033c57600080fd5b50610345610d6c565b6040516103529190613a6b565b60405180910390f35b34801561036757600080fd5b50610382600480360381019061037d9190612fa6565b610d7f565b60405161038f9190613a04565b60405180910390f35b3480156103a457600080fd5b506103bf60048036038101906103ba9190612cc4565b610e31565b6040516103cc9190613de8565b60405180910390f35b3480156103e157600080fd5b506103ea610ee9565b005b3480156103f857600080fd5b50610413600480360381019061040e9190612e6b565b610f71565b005b34801561042157600080fd5b5061042a6110d7565b6040516104379190613a04565b60405180910390f35b34801561044c57600080fd5b50610455611101565b6040516104629190613a86565b60405180910390f35b34801561047757600080fd5b50610492600480360381019061048d9190612f65565b611193565b005b3480156104a057600080fd5b506104bb60048036038101906104b69190612e2f565b611229565b005b3480156104c957600080fd5b506104e460048036038101906104df9190612fa6565b61123f565b005b3480156104f257600080fd5b5061050d60048036038101906105089190612db4565b6114e6565b005b34801561051b57600080fd5b50610524611548565b005b34801561053257600080fd5b5061053b6115e1565b6040516105489190613de8565b60405180910390f35b34801561055d57600080fd5b5061057860048036038101906105739190612fa6565b6115ec565b6040516105859190613a86565b60405180910390f35b34801561059a57600080fd5b506105a3611620565b6040516105b09190613de8565b60405180910390f35b3480156105c557600080fd5b506105e060048036038101906105db9190612f65565b611625565b005b3480156105ee57600080fd5b506105f76116bb565b6040516106049190613de8565b60405180910390f35b34801561061957600080fd5b50610634600480360381019061062f9190612cc4565b6116c0565b6040516106419190613de8565b60405180910390f35b34801561065657600080fd5b50610671600480360381019061066c9190612ea7565b6116d8565b005b34801561067f57600080fd5b50610688611880565b6040516106959190613a86565b60405180910390f35b3480156106aa57600080fd5b506106c560048036038101906106c09190612d29565b611912565b6040516106d29190613a6b565b60405180910390f35b3480156106e757600080fd5b5061070260048036038101906106fd9190612cc4565b6119a6565b005b34801561071057600080fd5b5061072b60048036038101906107269190612ced565b611a9e565b005b60007f80ac58cd000000000000000000000000000000000000000000000000000000007bffffffffffffffffffffffffffffffffffffffffffffffffffffffff1916827bffffffffffffffffffffffffffffffffffffffffffffffffffffffff191614806107f857507f5b5e139f000000000000000000000000000000000000000000000000000000007bffffffffffffffffffffffffffffffffffffffffffffffffffffffff1916827bffffffffffffffffffffffffffffffffffffffffffffffffffffffff1916145b80610808575061080782611b28565b5b9050919050565b60606000805461081e9061412c565b80601f016020809104026020016040519081016040528092919081815260200182805461084a9061412c565b80156108975780601f1061086c57610100808354040283529160200191610897565b820191906000526020600020905b81548152906001019060200180831161087a57829003601f168201915b5050505050905090565b60006108ac82611b92565b6108eb576040517f08c379a00000000000000000000000000000000000000000000000000000000081526004016108e290613d28565b60405180910390fd5b6004600083815260200190815260200160002060009054906101000a900473ffffffffffffffffffffffffffffffffffffffff169050919050565b600061093182610d7f565b90508073ffffffffffffffffffffffffffffffffffffffff168373ffffffffffffffffffffffffffffffffffffffff1614156109a2576040517f08c379a000000000000000000000000000000000000000000000000000000000815260040161099990613d88565b60405180910390fd5b8073ffffffffffffffffffffffffffffffffffffffff166109c1611bfe565b73ffffffffffffffffffffffffffffffffffffffff1614806109f057506109ef816109ea611bfe565b611912565b5b610a2f576040517f08c379a0000000000000000000000000000000000000000000000000000000008152600401610a2690613c68565b60405180910390fd5b610a398383611c06565b505050565b610a4f610a49611bfe565b82611cbf565b610a8e576040517f08c379a0000000000000000000000000000000000000000000000000000000008152600401610a8590613da8565b60405180910390fd5b610a99838383611d9d565b505050565b3373ffffffffffffffffffffffffffffffffffffffff163273ffffffffffffffffffffffffffffffffffffffff1614610b0c576040517f08c379a0000000000000000000000000000000000000000000000000000000008152600401610b0390613cc8565b60405180910390fd5b600a60009054906101000a900460ff16610b5b576040517f08c379a0000000000000000000000000000000000000000000000000000000008152600401610b5290613ba8565b60405180910390fd5b600081118015610b6c575060028111155b610bab576040517f08c379a0000000000000000000000000000000000000000000000000000000008152600401610ba290613bc8565b60405180910390fd5b600681610bb86009611ff9565b610bc29190613f4f565b1115610c03576040517f08c379a0000000000000000000000000000000000000000000000000000000008152600401610bfa90613ce8565b60405180910390fd5b600066038d7ea4c6800082610c189190613fd6565b905080341015610c5d576040517f08c379a0000000000000000000000000000000000000000000000000000000008152600401610c5490613c48565b60405180910390fd5b60005b82811015610ca457610c726009612007565b610c91846001610c826009611ff9565b610c8c9190614030565b61201d565b8080610c9c9061415e565b915050610c60565b50610cae8161203b565b505050565b610cce838383604051806020016040528060008152506114e6565b505050565b610cdb611bfe565b73ffffffffffffffffffffffffffffffffffffffff16610cf96110d7565b73ffffffffffffffffffffffffffffffffffffffff1614610d4f576040517f08c379a0000000000000000000000000000000000000000000000000000000008152600401610d4690613d48565b60405180910390fd5b6000600a60006101000a81548160ff021916908315150217905550565b600a60009054906101000a900460ff1681565b6000806002600084815260200190815260200160002060009054906101000a900473ffffffffffffffffffffffffffffffffffffffff169050600073ffffffffffffffffffffffffffffffffffffffff168173ffffffffffffffffffffffffffffffffffffffff161415610e28576040517f08c379a0000000000000000000000000000000000000000000000000000000008152600401610e1f90613ca8565b60405180910390fd5b80915050919050565b60008073ffffffffffffffffffffffffffffffffffffffff168273ffffffffffffffffffffffffffffffffffffffff161415610ea2576040517f08c379a0000000000000000000000000000000000000000000000000000000008152600401610e9990613c88565b60405180910390fd5b600360008373ffffffffffffffffffffffffffffffffffffffff1673ffffffffffffffffffffffffffffffffffffffff168152602001908152602001600020549050919050565b610ef1611bfe565b73ffffffffffffffffffffffffffffffffffffffff16610f0f6110d7565b73ffffffffffffffffffffffffffffffffffffffff1614610f65576040517f08c379a0000000000000000000000000000000000000000000000000000000008152600401610f5c90613d48565b60405180910390fd5b610f6f600061209f565b565b610f79611bfe565b73ffffffffffffffffffffffffffffffffffffffff16610f976110d7565b73ffffffffffffffffffffffffffffffffffffffff1614610fed576040517f08c379a0000000000000000000000000000000000000000000000000000000008152600401610fe490613d48565b60405180910390fd5b60008111611030576040517f08c379a000000000000000000000000000000000000000000000000000000000815260040161102790613b28565b60405180910390fd5b60068161103d6009611ff9565b6110479190613f4f565b1115611088576040517f08c379a000000000000000000000000000000000000000000000000000000000815260040161107f90613ce8565b60405180910390fd5b6000600190505b8181116110d2576110a06009612007565b6110bf8360016110b06009611ff9565b6110ba9190614030565b61201d565b80806110ca9061415e565b91505061108f565b505050565b6000600660009054906101000a900473ffffffffffffffffffffffffffffffffffffffff16905090565b6060600180546111109061412c565b80601f016020809104026020016040519081016040528092919081815260200182805461113c9061412c565b80156111895780601f1061115e57610100808354040283529160200191611189565b820191906000526020600020905b81548152906001019060200180831161116c57829003601f168201915b5050505050905090565b61119b611bfe565b73ffffffffffffffffffffffffffffffffffffffff166111b96110d7565b73ffffffffffffffffffffffffffffffffffffffff161461120f576040517f08c379a000000000000000000000000000000000000000000000000000000000815260040161120690613d48565b60405180910390fd5b80600890805190602001906112259291906129a7565b5050565b61123b611234611bfe565b8383612165565b5050565b3373ffffffffffffffffffffffffffffffffffffffff163273ffffffffffffffffffffffffffffffffffffffff16146112ad576040517f08c379a00000000000000000000000000000000000000000000000000000000081526004016112a490613cc8565b60405180910390fd5b6000600b60003373ffffffffffffffffffffffffffffffffffffffff1673ffffffffffffffffffffffffffffffffffffffff168152602001908152602001600020541161132f576040517f08c379a000000000000000000000000000000000000000000000000000000000815260040161132690613dc8565b60405180910390fd5b600a60009054906101000a900460ff1661137e576040517f08c379a000000000000000000000000000000000000000000000000000000000815260040161137590613ba8565b60405180910390fd5b6000811180156113cd5750600b60003373ffffffffffffffffffffffffffffffffffffffff1673ffffffffffffffffffffffffffffffffffffffff168152602001908152602001600020548111155b61140c576040517f08c379a000000000000000000000000000000000000000000000000000000000815260040161140390613aa8565b60405180910390fd5b6006816114196009611ff9565b6114239190613f4f565b1115611464576040517f08c379a000000000000000000000000000000000000000000000000000000000815260040161145b90613ce8565b60405180910390fd5b80600b60003373ffffffffffffffffffffffffffffffffffffffff1673ffffffffffffffffffffffffffffffffffffffff16815260200190815260200160002060008282546114b39190614030565b925050819055506114c46009612007565b6114e33360016114d46009611ff9565b6114de9190614030565b61201d565b50565b6114f76114f1611bfe565b83611cbf565b611536576040517f08c379a000000000000000000000000000000000000000000000000000000000815260040161152d90613da8565b60405180910390fd5b611542848484846122d2565b50505050565b611550611bfe565b73ffffffffffffffffffffffffffffffffffffffff1661156e6110d7565b73ffffffffffffffffffffffffffffffffffffffff16146115c4576040517f08c379a00000000000000000000000000000000000000000000000000000000081526004016115bb90613d48565b60405180910390fd5b6001600a60006101000a81548160ff021916908315150217905550565b66038d7ea4c6800081565b606060086115f98361232e565b60405160200161160a9291906139c0565b6040516020818303038152906040529050919050565b600281565b61162d611bfe565b73ffffffffffffffffffffffffffffffffffffffff1661164b6110d7565b73ffffffffffffffffffffffffffffffffffffffff16146116a1576040517f08c379a000000000000000000000000000000000000000000000000000000000815260040161169890613d48565b60405180910390fd5b80600790805190602001906116b79291906129a7565b5050565b600681565b600b6020528060005260406000206000915090505481565b6116e0611bfe565b73ffffffffffffffffffffffffffffffffffffffff166116fe6110d7565b73ffffffffffffffffffffffffffffffffffffffff1614611754576040517f08c379a000000000000000000000000000000000000000000000000000000000815260040161174b90613d48565b60405180910390fd5b8051825114611798576040517f08c379a000000000000000000000000000000000000000000000000000000000815260040161178f90613b48565b60405180910390fd5b60005b825181101561187b578181815181106117dd577f4e487b7100000000000000000000000000000000000000000000000000000000600052603260045260246000fd5b6020026020010151600b6000858481518110611822577f4e487b7100000000000000000000000000000000000000000000000000000000600052603260045260246000fd5b602002602001015173ffffffffffffffffffffffffffffffffffffffff1673ffffffffffffffffffffffffffffffffffffffff1681526020019081526020016000208190555080806118739061415e565b91505061179b565b505050565b60606007805461188f9061412c565b80601f01602080910402602001604051908101604052809291908181526020018280546118bb9061412c565b80156119085780601f106118dd57610100808354040283529160200191611908565b820191906000526020600020905b8154815290600101906020018083116118eb57829003601f168201915b5050505050905090565b6000600560008473ffffffffffffffffffffffffffffffffffffffff1673ffffffffffffffffffffffffffffffffffffffff16815260200190815260200160002060008373ffffffffffffffffffffffffffffffffffffffff1673ffffffffffffffffffffffffffffffffffffffff16815260200190815260200160002060009054906101000a900460ff16905092915050565b6119ae611bfe565b73ffffffffffffffffffffffffffffffffffffffff166119cc6110d7565b73ffffffffffffffffffffffffffffffffffffffff1614611a22576040517f08c379a0000000000000000000000000000000000000000000000000000000008152600401611a1990613d48565b60405180910390fd5b600073ffffffffffffffffffffffffffffffffffffffff168173ffffffffffffffffffffffffffffffffffffffff161415611a92576040517f08c379a0000000000000000000000000000000000000000000000000000000008152600401611a8990613ae8565b60405180910390fd5b611a9b8161209f565b50565b611aa6611bfe565b73ffffffffffffffffffffffffffffffffffffffff16611ac46110d7565b73ffffffffffffffffffffffffffffffffffffffff1614611b1a576040517f08c379a0000000000000000000000000000000000000000000000000000000008152600401611b1190613d48565b60405180910390fd5b611b2482826124db565b5050565b60007f01ffc9a7000000000000000000000000000000000000000000000000000000007bffffffffffffffffffffffffffffffffffffffffffffffffffffffff1916827bffffffffffffffffffffffffffffffffffffffffffffffffffffffff1916149050919050565b60008073ffffffffffffffffffffffffffffffffffffffff166002600084815260200190815260200160002060009054906101000a900473ffffffffffffffffffffffffffffffffffffffff1673ffffffffffffffffffffffffffffffffffffffff1614159050919050565b600033905090565b816004600083815260200190815260200160002060006101000a81548173ffffffffffffffffffffffffffffffffffffffff021916908373ffffffffffffffffffffffffffffffffffffffff160217905550808273ffffffffffffffffffffffffffffffffffffffff16611c7983610d7f565b73ffffffffffffffffffffffffffffffffffffffff167f8c5be1e5ebec7d5bd14f71427d1e84f3dd0314c0f7b2291e5b200ac8c7c3b92560405160405180910390a45050565b6000611cca82611b92565b611d09576040517f08c379a0000000000000000000000000000000000000000000000000000000008152600401611d0090613c28565b60405180910390fd5b6000611d1483610d7f565b90508073ffffffffffffffffffffffffffffffffffffffff168473ffffffffffffffffffffffffffffffffffffffff161480611d8357508373ffffffffffffffffffffffffffffffffffffffff16611d6b846108a1565b73ffffffffffffffffffffffffffffffffffffffff16145b80611d945750611d938185611912565b5b91505092915050565b8273ffffffffffffffffffffffffffffffffffffffff16611dbd82610d7f565b73ffffffffffffffffffffffffffffffffffffffff1614611e13576040517f08c379a0000000000000000000000000000000000000000000000000000000008152600401611e0a90613d68565b60405180910390fd5b600073ffffffffffffffffffffffffffffffffffffffff168273ffffffffffffffffffffffffffffffffffffffff161415611e83576040517f08c379a0000000000000000000000000000000000000000000000000000000008152600401611e7a90613b68565b60405180910390fd5b611e8e8383836125cf565b611e99600082611c06565b6001600360008573ffffffffffffffffffffffffffffffffffffffff1673ffffffffffffffffffffffffffffffffffffffff1681526020019081526020016000206000828254611ee99190614030565b925050819055506001600360008473ffffffffffffffffffffffffffffffffffffffff1673ffffffffffffffffffffffffffffffffffffffff1681526020019081526020016000206000828254611f409190613f4f565b92505081905550816002600083815260200190815260200160002060006101000a81548173ffffffffffffffffffffffffffffffffffffffff021916908373ffffffffffffffffffffffffffffffffffffffff160217905550808273ffffffffffffffffffffffffffffffffffffffff168473ffffffffffffffffffffffffffffffffffffffff167fddf252ad1be2c89b69c2b068fc378daa952ba7f163c4a11628f55a4df523b3ef60405160405180910390a4505050565b600081600001549050919050565b6001816000016000828254019250508190555050565b6120378282604051806020016040528060008152506125d4565b5050565b8034101561207e576040517f08c379a000000000000000000000000000000000000000000000000000000000815260040161207590613c48565b60405180910390fd5b8034111561209c5761209b3382346120969190614030565b6124db565b5b50565b6000600660009054906101000a900473ffffffffffffffffffffffffffffffffffffffff16905081600660006101000a81548173ffffffffffffffffffffffffffffffffffffffff021916908373ffffffffffffffffffffffffffffffffffffffff1602179055508173ffffffffffffffffffffffffffffffffffffffff168173ffffffffffffffffffffffffffffffffffffffff167f8be0079c531659141344cd1fd0a4f28419497f9722a3daafe3b4186f6b6457e060405160405180910390a35050565b8173ffffffffffffffffffffffffffffffffffffffff168373ffffffffffffffffffffffffffffffffffffffff1614156121d4576040517f08c379a00000000000000000000000000000000000000000000000000000000081526004016121cb90613b88565b60405180910390fd5b80600560008573ffffffffffffffffffffffffffffffffffffffff1673ffffffffffffffffffffffffffffffffffffffff16815260200190815260200160002060008473ffffffffffffffffffffffffffffffffffffffff1673ffffffffffffffffffffffffffffffffffffffff16815260200190815260200160002060006101000a81548160ff0219169083151502179055508173ffffffffffffffffffffffffffffffffffffffff168373ffffffffffffffffffffffffffffffffffffffff167f17307eab39ab6107e8899845ad3d59bd9653f200f220920489ca2b5937696c31836040516122c59190613a6b565b60405180910390a3505050565b6122dd848484611d9d565b6122e98484848461262f565b612328576040517f08c379a000000000000000000000000000000000000000000000000000000000815260040161231f90613ac8565b60405180910390fd5b50505050565b60606000821415612376576040518060400160405280600181526020017f300000000000000000000000000000000000000000000000000000000000000081525090506124d6565b600082905060005b600082146123a85780806123919061415e565b915050600a826123a19190613fa5565b915061237e565b60008167ffffffffffffffff8111156123ea577f4e487b7100000000000000000000000000000000000000000000000000000000600052604160045260246000fd5b6040519080825280601f01601f19166020018201604052801561241c5781602001600182028036833780820191505090505b5090505b600085146124cf576001826124359190614030565b9150600a8561244491906141a7565b60306124509190613f4f565b60f81b81838151811061248c577f4e487b7100000000000000000000000000000000000000000000000000000000600052603260045260246000fd5b60200101907effffffffffffffffffffffffffffffffffffffffffffffffffffffffffffff1916908160001a905350600a856124c89190613fa5565b9450612420565b8093505050505b919050565b8047101561251e576040517f08c379a000000000000000000000000000000000000000000000000000000000815260040161251590613c08565b60405180910390fd5b60008273ffffffffffffffffffffffffffffffffffffffff1682604051612544906139ef565b60006040518083038185875af1925050503d8060008114612581576040519150601f19603f3d011682016040523d82523d6000602084013e612586565b606091505b50509050806125ca576040517f08c379a00000000000000000000000000000000000000000000000000000000081526004016125c190613be8565b60405180910390fd5b505050565b505050565b6125de83836127c6565b6125eb600084848461262f565b61262a576040517f08c379a000000000000000000000000000000000000000000000000000000000815260040161262190613ac8565b60405180910390fd5b505050565b60006126508473ffffffffffffffffffffffffffffffffffffffff16612994565b156127b9578373ffffffffffffffffffffffffffffffffffffffff1663150b7a02612679611bfe565b8786866040518563ffffffff1660e01b815260040161269b9493929190613a1f565b602060405180830381600087803b1580156126b557600080fd5b505af19250505080156126e657506040513d601f19601f820116820180604052508101906126e39190612f3c565b60015b612769573d8060008114612716576040519150601f19603f3d011682016040523d82523d6000602084013e61271b565b606091505b50600081511415612761576040517f08c379a000000000000000000000000000000000000000000000000000000000815260040161275890613ac8565b60405180910390fd5b805181602001fd5b63150b7a0260e01b7bffffffffffffffffffffffffffffffffffffffffffffffffffffffff1916817bffffffffffffffffffffffffffffffffffffffffffffffffffffffff1916149150506127be565b600190505b949350505050565b600073ffffffffffffffffffffffffffffffffffffffff168273ffffffffffffffffffffffffffffffffffffffff161415612836576040517f08c379a000000000000000000000000000000000000000000000000000000000815260040161282d90613d08565b60405180910390fd5b61283f81611b92565b1561287f576040517f08c379a000000000000000000000000000000000000000000000000000000000815260040161287690613b08565b60405180910390fd5b61288b600083836125cf565b6001600360008473ffffffffffffffffffffffffffffffffffffffff1673ffffffffffffffffffffffffffffffffffffffff16815260200190815260200160002060008282546128db9190613f4f565b92505081905550816002600083815260200190815260200160002060006101000a81548173ffffffffffffffffffffffffffffffffffffffff021916908373ffffffffffffffffffffffffffffffffffffffff160217905550808273ffffffffffffffffffffffffffffffffffffffff16600073ffffffffffffffffffffffffffffffffffffffff167fddf252ad1be2c89b69c2b068fc378daa952ba7f163c4a11628f55a4df523b3ef60405160405180910390a45050565b600080823b905060008111915050919050565b8280546129b39061412c565b90600052602060002090601f0160209004810192826129d55760008555612a1c565b82601f106129ee57805160ff1916838001178555612a1c565b82800160010185558215612a1c579182015b82811115612a1b578251825591602001919060010190612a00565b5b509050612a299190612a2d565b5090565b5b80821115612a46576000816000905550600101612a2e565b5090565b6000612a5d612a5884613e34565b613e03565b90508083825260208201905082856020860282011115612a7c57600080fd5b60005b85811015612aac5781612a928882612b9e565b845260208401935060208301925050600181019050612a7f565b5050509392505050565b6000612ac9612ac484613e60565b613e03565b90508083825260208201905082856020860282011115612ae857600080fd5b60005b85811015612b185781612afe8882612caf565b845260208401935060208301925050600181019050612aeb565b5050509392505050565b6000612b35612b3084613e8c565b613e03565b905082815260208101848484011115612b4d57600080fd5b612b588482856140ea565b509392505050565b6000612b73612b6e84613ebc565b613e03565b905082815260208101848484011115612b8b57600080fd5b612b968482856140ea565b509392505050565b600081359050612bad816142a5565b92915050565b600081359050612bc2816142bc565b92915050565b600082601f830112612bd957600080fd5b8135612be9848260208601612a4a565b91505092915050565b600082601f830112612c0357600080fd5b8135612c13848260208601612ab6565b91505092915050565b600081359050612c2b816142d3565b92915050565b600081359050612c40816142ea565b92915050565b600081519050612c55816142ea565b92915050565b600082601f830112612c6c57600080fd5b8135612c7c848260208601612b22565b91505092915050565b600082601f830112612c9657600080fd5b8135612ca6848260208601612b60565b91505092915050565b600081359050612cbe81614301565b92915050565b600060208284031215612cd657600080fd5b6000612ce484828501612b9e565b91505092915050565b60008060408385031215612d0057600080fd5b6000612d0e85828601612bb3565b9250506020612d1f85828601612caf565b9150509250929050565b60008060408385031215612d3c57600080fd5b6000612d4a85828601612b9e565b9250506020612d5b85828601612b9e565b9150509250929050565b600080600060608486031215612d7a57600080fd5b6000612d8886828701612b9e565b9350506020612d9986828701612b9e565b9250506040612daa86828701612caf565b9150509250925092565b60008060008060808587031215612dca57600080fd5b6000612dd887828801612b9e565b9450506020612de987828801612b9e565b9350506040612dfa87828801612caf565b925050606085013567ffffffffffffffff811115612e1757600080fd5b612e2387828801612c5b565b91505092959194509250565b60008060408385031215612e4257600080fd5b6000612e5085828601612b9e565b9250506020612e6185828601612c1c565b9150509250929050565b60008060408385031215612e7e57600080fd5b6000612e8c85828601612b9e565b9250506020612e9d85828601612caf565b9150509250929050565b60008060408385031215612eba57600080fd5b600083013567ffffffffffffffff811115612ed457600080fd5b612ee085828601612bc8565b925050602083013567ffffffffffffffff811115612efd57600080fd5b612f0985828601612bf2565b9150509250929050565b600060208284031215612f2557600080fd5b6000612f3384828501612c31565b91505092915050565b600060208284031215612f4e57600080fd5b6000612f5c84828501612c46565b91505092915050565b600060208284031215612f7757600080fd5b600082013567ffffffffffffffff811115612f9157600080fd5b612f9d84828501612c85565b91505092915050565b600060208284031215612fb857600080fd5b6000612fc684828501612caf565b91505092915050565b612fd881614064565b82525050565b612fe781614088565b82525050565b6000612ff882613f01565b6130028185613f17565b93506130128185602086016140f9565b61301b81614294565b840191505092915050565b600061303182613f0c565b61303b8185613f33565b935061304b8185602086016140f9565b61305481614294565b840191505092915050565b600061306a82613f0c565b6130748185613f44565b93506130848185602086016140f9565b80840191505092915050565b6000815461309d8161412c565b6130a78186613f44565b945060018216600081146130c257600181146130d357613106565b60ff19831686528186019350613106565b6130dc85613eec565b60005b838110156130fe578154818901526001820191506020810190506130df565b838801955050505b50505092915050565b600061311c601e83613f33565b91507f416d6f756e74206578636565647320796f75722066726565206d696e747300006000830152602082019050919050565b600061315c603283613f33565b91507f4552433732313a207472616e7366657220746f206e6f6e20455243373231526560008301527f63656976657220696d706c656d656e74657200000000000000000000000000006020830152604082019050919050565b60006131c2602683613f33565b91507f4f776e61626c653a206e6577206f776e657220697320746865207a65726f206160008301527f64647265737300000000000000000000000000000000000000000000000000006020830152604082019050919050565b6000613228601c83613f33565b91507f4552433732313a20746f6b656e20616c7265616479206d696e746564000000006000830152602082019050919050565b6000613268601d83613f33565b91507f416d6f756e74206d7573742062652067726561746572207468616e20300000006000830152602082019050919050565b60006132a8601483613f33565b91507f4c656e6774687320646f206e6f74206d617463680000000000000000000000006000830152602082019050919050565b60006132e8602483613f33565b91507f4552433732313a207472616e7366657220746f20746865207a65726f2061646460008301527f72657373000000000000000000000000000000000000000000000000000000006020830152604082019050919050565b600061334e601983613f33565b91507f4552433732313a20617070726f766520746f2063616c6c6572000000000000006000830152602082019050919050565b600061338e601283613f33565b91507f53616c65206973206e6f742061637469766500000000000000000000000000006000830152602082019050919050565b60006133ce602083613f33565b91507f416d6f756e742065786365656473206d617820746f6b656e73207065722074786000830152602082019050919050565b600061340e603a83613f33565b91507f416464726573733a20756e61626c6520746f2073656e642076616c75652c207260008301527f6563697069656e74206d617920686176652072657665727465640000000000006020830152604082019050919050565b6000613474601d83613f33565b91507f416464726573733a20696e73756666696369656e742062616c616e63650000006000830152602082019050919050565b60006134b4602c83613f33565b91507f4552433732313a206f70657261746f7220717565727920666f72206e6f6e657860008301527f697374656e7420746f6b656e00000000000000000000000000000000000000006020830152604082019050919050565b600061351a601383613f33565b91507f546f6f206c6573732065746865722073656e74000000000000000000000000006000830152602082019050919050565b600061355a603883613f33565b91507f4552433732313a20617070726f76652063616c6c6572206973206e6f74206f7760008301527f6e6572206e6f7220617070726f76656420666f7220616c6c00000000000000006020830152604082019050919050565b60006135c0602a83613f33565b91507f4552433732313a2062616c616e636520717565727920666f7220746865207a6560008301527f726f2061646472657373000000000000000000000000000000000000000000006020830152604082019050919050565b6000613626602983613f33565b91507f4552433732313a206f776e657220717565727920666f72206e6f6e657869737460008301527f656e7420746f6b656e00000000000000000000000000000000000000000000006020830152604082019050919050565b600061368c600a83613f33565b91507f4f6e6c79207573657273000000000000000000000000000000000000000000006000830152602082019050919050565b60006136cc601c83613f33565b91507f546f6f206c65737320746f6b656e73206c65667420746f206d696e74000000006000830152602082019050919050565b600061370c602083613f33565b91507f4552433732313a206d696e7420746f20746865207a65726f20616464726573736000830152602082019050919050565b600061374c602c83613f33565b91507f4552433732313a20617070726f76656420717565727920666f72206e6f6e657860008301527f697374656e7420746f6b656e00000000000000000000000000000000000000006020830152604082019050919050565b60006137b2600583613f44565b91507f2e6a736f6e0000000000000000000000000000000000000000000000000000006000830152600582019050919050565b60006137f2602083613f33565b91507f4f776e61626c653a2063616c6c6572206973206e6f7420746865206f776e65726000830152602082019050919050565b6000613832602983613f33565b91507f4552433732313a207472616e73666572206f6620746f6b656e2074686174206960008301527f73206e6f74206f776e00000000000000000000000000000000000000000000006020830152604082019050919050565b6000613898602183613f33565b91507f4552433732313a20617070726f76616c20746f2063757272656e74206f776e6560008301527f72000000000000000000000000000000000000000000000000000000000000006020830152604082019050919050565b60006138fe600083613f28565b9150600082019050919050565b6000613918603183613f33565b91507f4552433732313a207472616e736665722063616c6c6572206973206e6f74206f60008301527f776e6572206e6f7220617070726f7665640000000000000000000000000000006020830152604082019050919050565b600061397e601c83613f33565b91507f4f6e6c792066726565206d696e6974696e6720616464726573736573000000006000830152602082019050919050565b6139ba816140e0565b82525050565b60006139cc8285613090565b91506139d8828461305f565b91506139e3826137a5565b91508190509392505050565b60006139fa826138f1565b9150819050919050565b6000602082019050613a196000830184612fcf565b92915050565b6000608082019050613a346000830187612fcf565b613a416020830186612fcf565b613a4e60408301856139b1565b8181036060830152613a608184612fed565b905095945050505050565b6000602082019050613a806000830184612fde565b92915050565b60006020820190508181036000830152613aa08184613026565b905092915050565b60006020820190508181036000830152613ac18161310f565b9050919050565b60006020820190508181036000830152613ae18161314f565b9050919050565b60006020820190508181036000830152613b01816131b5565b9050919050565b60006020820190508181036000830152613b218161321b565b9050919050565b60006020820190508181036000830152613b418161325b565b9050919050565b60006020820190508181036000830152613b618161329b565b9050919050565b60006020820190508181036000830152613b81816132db565b9050919050565b60006020820190508181036000830152613ba181613341565b9050919050565b60006020820190508181036000830152613bc181613381565b9050919050565b60006020820190508181036000830152613be1816133c1565b9050919050565b60006020820190508181036000830152613c0181613401565b9050919050565b60006020820190508181036000830152613c2181613467565b9050919050565b60006020820190508181036000830152613c41816134a7565b9050919050565b60006020820190508181036000830152613c618161350d565b9050919050565b60006020820190508181036000830152613c818161354d565b9050919050565b60006020820190508181036000830152613ca1816135b3565b9050919050565b60006020820190508181036000830152613cc181613619565b9050919050565b60006020820190508181036000830152613ce18161367f565b9050919050565b60006020820190508181036000830152613d01816136bf565b9050919050565b60006020820190508181036000830152613d21816136ff565b9050919050565b60006020820190508181036000830152613d418161373f565b9050919050565b60006020820190508181036000830152613d61816137e5565b9050919050565b60006020820190508181036000830152613d8181613825565b9050919050565b60006020820190508181036000830152613da18161388b565b9050919050565b60006020820190508181036000830152613dc18161390b565b9050919050565b60006020820190508181036000830152613de181613971565b9050919050565b6000602082019050613dfd60008301846139b1565b92915050565b6000604051905081810181811067ffffffffffffffff82111715613e2a57613e29614265565b5b8060405250919050565b600067ffffffffffffffff821115613e4f57613e4e614265565b5b602082029050602081019050919050565b600067ffffffffffffffff821115613e7b57613e7a614265565b5b602082029050602081019050919050565b600067ffffffffffffffff821115613ea757613ea6614265565b5b601f19601f8301169050602081019050919050565b600067ffffffffffffffff821115613ed757613ed6614265565b5b601f19601f8301169050602081019050919050565b60008190508160005260206000209050919050565b600081519050919050565b600081519050919050565b600082825260208201905092915050565b600081905092915050565b600082825260208201905092915050565b600081905092915050565b6000613f5a826140e0565b9150613f65836140e0565b9250827fffffffffffffffffffffffffffffffffffffffffffffffffffffffffffffffff03821115613f9a57613f996141d8565b5b828201905092915050565b6000613fb0826140e0565b9150613fbb836140e0565b925082613fcb57613fca614207565b5b828204905092915050565b6000613fe1826140e0565b9150613fec836140e0565b9250817fffffffffffffffffffffffffffffffffffffffffffffffffffffffffffffffff0483118215151615614025576140246141d8565b5b828202905092915050565b600061403b826140e0565b9150614046836140e0565b925082821015614059576140586141d8565b5b828203905092915050565b600061406f826140c0565b9050919050565b6000614081826140c0565b9050919050565b60008115159050919050565b60007fffffffff0000000000000000000000000000000000000000000000000000000082169050919050565b600073ffffffffffffffffffffffffffffffffffffffff82169050919050565b6000819050919050565b82818337600083830152505050565b60005b838110156141175780820151818401526020810190506140fc565b83811115614126576000848401525b50505050565b6000600282049050600182168061414457607f821691505b6020821081141561415857614157614236565b5b50919050565b6000614169826140e0565b91507fffffffffffffffffffffffffffffffffffffffffffffffffffffffffffffffff82141561419c5761419b6141d8565b5b600182019050919050565b60006141b2826140e0565b91506141bd836140e0565b9250826141cd576141cc614207565b5b828206905092915050565b7f4e487b7100000000000000000000000000000000000000000000000000000000600052601160045260246000fd5b7f4e487b7100000000000000000000000000000000000000000000000000000000600052601260045260246000fd5b7f4e487b7100000000000000000000000000000000000000000000000000000000600052602260045260246000fd5b7f4e487b7100000000000000000000000000000000000000000000000000000000600052604160045260246000fd5b6000601f19601f8301169050919050565b6142ae81614064565b81146142b957600080fd5b50565b6142c581614076565b81146142d057600080fd5b50565b6142dc81614088565b81146142e757600080fd5b50565b6142f381614094565b81146142fe57600080fd5b50565b61430a816140e0565b811461431557600080fd5b5056fea26469706673582212207d9499e461082d1f75f6db5557d7f09a2949f4a59f8a4b15f80bb97f6ef4e51c64736f6c63430008000033697066733a2f2f516d55353553324c365879447959436635347a3969584d726e3974336b5873714b4c556d5154416438754e704b582f",
  "linkReferences": {},
  "deployedLinkReferences": {}
}